:100000000C945D000C9485000C9485000C94850084
:100010000C9485000C9485000C9485000C9485004C
:100020000C9485000C9485000C9485000C9485003C
:100030000C9485000C9485000C9485000C9485002C
:100040000C94EB060C9485000C945D060C9437061A
:100050000C9485000C9485000C9485000C9485000C
:100060000C9485000C9485000000000024002700FB
:100070002A0000000000250028002B0004040404CE
:100080000404040402020202020203030303030342
:10009000010204081020408001020408102001021F
:1000A00004081020000000080002010000030407FB
:1000B0000000000000000000E10A11241FBECFEF85
:1000C000D8E0DEBFCDBF23E0A4EAB1E001C01D92BD
:1000D000A930B207E1F711E0A0E0B1E0E0E5FEE110
:1000E00002C005900D92A43AB107D9F710E0CDE512
:1000F000D0E004C02197FE010E94DA0CCC35D10774
:10010000C9F70E945E080C94260F0C940000089515
:1001100080E090E00895FC01538D448D252F30E060
:10012000842F90E0821B930B541710F0CF96089504
:1001300001970895FC01918D828D981761F0828D51
:10014000DF01A80FB11D5D968C91928D9F5F9F730B
:10015000928F90E008958FEF9FEF0895FC01918DAD
:10016000828D981731F0828DE80FF11D858D90E01A
:1001700008958FEF9FEF0895FC01918D228D892FB7
:1001800090E0805C9F4F821B91098F73992708959F
:1001900089EB91E00E94BC0021E0892B09F420E06A
:1001A000822F0895FC01848DDF01A80FB11DA35A91
:1001B000BF4F2C91848D90E001968F739927848F87
:1001C000A689B7892C93A089B1898C9180648C937E
:1001D000938D848D981306C00288F389E02D808169
:1001E0008F7D80830895EF92FF920F931F93CF939B
:1001F000DF93EC0181E0888F9B8D8C8D981305C077
:10020000E889F989808185FD24C0F62E0B8D10E0E8
:100210000F5F1F4F0F731127E02E8C8DE8120CC05B
:100220000FB607FCFACFE889F989808185FFF5CF01
:10023000CE010E94D200F1CF8B8DFE01E80FF11D9F
:10024000E35AFF4FF0820B8FEA89FB89808180623D
:1002500007C0EE89FF896083E889F989808180641D
:10026000808381E090E0DF91CF911F910F91FF900B
:10027000EF900895CF93DF93EC01888D8823C9F028
:10028000EA89FB89808185FD05C0A889B9898C919F
:1002900086FD0FC00FB607FCF5CF808185FFF2CF3A
:1002A000A889B9898C9185FFEDCFCE010E94D2003B
:1002B000E7CFDF91CF91089580E090E0892B29F07E
:1002C0000E94C80081110C940000089590E0FC0188
:1002D000EC55FF4F3491FC01E057FF4F2491FC0196
:1002E000E458FF4FE491EE2309F43BC0332339F186
:1002F000333091F038F43130A9F0323001F584B563
:100300008F7D12C0373091F03830A1F03430B9F41D
:10031000809180008F7D03C0809180008F778093D3
:1003200080000DC084B58F7784BD09C08091B00076
:100330008F7703C08091B0008F7D8093B000F0E094
:10034000EE0FFF1FEE58FF4FA591B4918FB7F894B1
:10035000EC91611103C020952E2301C02E2B2C930C
:100360008FBF0895CF93DF9390E0FC01E057FF4FDC
:100370002491FC01E458FF4F8491882361F190E0BF
:10038000880F991FFC01E859FF4FC591D491FC01DA
:10039000EE58FF4FA591B491611109C09FB7F89431
:1003A0008881209582238883EC912E230BC06230B4
:1003B00061F49FB7F8943881822F809583238883D6
:1003C000EC912E2B2C939FBF06C08FB7F894E88139
:1003D0002E2B28838FBFDF91CF9108951F93CF934A
:1003E000DF93182FEB0161E00E94B201209711F416
:1003F00060E004C0CF3FD10539F461E0812FDF9187
:10040000CF911F910C946601E12FF0E0EC55FF4F66
:10041000E491E330F9F048F4E130B9F0E230A1F5CD
:1004200084B5806284BDC8BD34C0E730E9F0E830EF
:1004300019F1E43049F5809180008062809380005A
:10044000D0938B00C0938A0024C084B5806884BD9B
:10045000C7BD1FC080918000806880938000D093CA
:100460008900C093880015C08091B0008068809397
:10047000B000C093B3000DC08091B0008062809343
:10048000B000C093B40005C0C038D1050CF0B5CFA2
:10049000AFCFDF91CF911F9108953FB7F89480912E
:1004A000A9019091AA01A091AB01B091AC0126B530
:1004B000A89B05C02F3F19F00196A11DB11D3FBF9C
:1004C000BA2FA92F982F8827820F911DA11DB11D2A
:1004D000BC01CD0142E0660F771F881F991F4A9526
:1004E000D1F708950895FC01DB012D913C918281A3
:1004F00093812817390751F041E04583821793070C
:1005000014F08FEF01C081E0848301C01582DB010C
:100510008D919C91938382830895FC01DB018281FC
:100520009C91981751F091E094839C91891710F059
:100530008FEF01C081E0838301C014828C9182839C
:100540000895FC01DB012D913C9182819381281754
:10055000390751F041E045838217930710F08FEF80
:1005600001C081E0848301C01582DB018D919C91E3
:100570009383828308950F931F93CF93DF938C010E
:10058000EB010E948D02D80115968D919C911697D2
:10059000009761F0DC01ED91FC910190F081E02D7C
:1005A000BE01DF91CF911F910F910994DF91CF91FF
:1005B0001F910F9108950F931F93CF93DF93FC0129
:1005C000DB010D911D912D913C9182819381A4813C
:1005D000B581081719072A073B0761F041E04783F7
:1005E00080179107A207B30710F08FEF01C081E0D9
:1005F000868301C01782EB0188819981AA81BB8122
:1006000082839383A483B583DF91CF911F910F9150
:100610000895FC01DB0182819C91981769F091E0BB
:1006200094832C9130E090E08217930714F08FEFC1
:1006300001C081E0838301C014828C91828308957C
:100640000F931F93CF93DF938C01EB010E9409035B
:10065000D80115968D919C911697009761F0DC0159
:10066000ED91FC910190F081E02DBE01DF91CF91E1
:100670001F910F910994DF91CF911F910F910895D0
:1006800008950C94750D6F927F928F929F92AF9206
:10069000BF92CF92DF92EF92FF920F931F93CF936F
:1006A000DF93CDB7DEB7EC970FB6F894DEBF0FBE81
:1006B000CDBFDC015496FC90549754961C92B1E047
:1006C000FB12C0C28C01FC01858115828F3F09F0AD
:1006D00067C01982BE016F5F7F4FC80148960E94B4
:1006E0002003F982BE016F5F7F4FC8014F960E94C1
:1006F0002003F982BE016F5F7F4FC80186960E947A
:1007000020031982BE016F5F7F4FC8018D960E9442
:10071000BB021982BE016F5F7F4FC801C4960E9461
:10072000BB021982BE016F5F7F4FC8018F5B9F4F75
:100730000E940903E091C901F091CA0182E080831F
:10074000E091C501F091C6011082E091C701F091DE
:10075000C8018FEC80831092D101E091CD01F0911E
:10076000CE0186E08083E091CB01F091CC018081C5
:1007700080618083E091CB01F091CC018081886021
:100780008083E091CB01F091CC01808180688083EF
:10079000E091CB01F091CC0180818F7D808308C0F6
:1007A000F982BE016F5F7F4FC80102960E94090364
:1007B00089EB91E00E94BC00892B09F495C118AE29
:1007C0001FAA1AAE19AE1CAE1BAE60E070E0CE01DF
:1007D000C7960E9437082FA938AD81110DC0211589
:1007E000310519F0C9010E94750D18AE1FAA1CAE83
:1007F0001BAE1AAE19AE26C01CAE1BAE6EE871E081
:10080000C9010E94F60E1EC08A309105F9F0898355
:100810001A82EBACFCACFFEFEF1AFF0AB701CE0176
:10082000C7960E943708882369F02FA938AD8BAD91
:100830009CADBE016F5F7F4F820F931F0E94F60E2B
:10084000FCAEEBAE0E94820797FFDECF8BAD9CAD76
:10085000892B09F445C16FA978AD8AE091E09A83AC
:1008600089831C821B821E821D8218861F827E0144
:1008700029E0E20EF11C84E1D7011D928A95E9F787
:1008800043E150E0C7010E94FD0EFE01B7968AE0E9
:10089000DF011D928A95E9F76E01B1E3CB0ED11C01
:1008A00086E0D6011D928A95E9F7C7015F01AE0186
:1008B0004E5E5F4F7C01DC012C910196322F3F7D13
:1008C00049F07C01219384179507A1F788EC90E00B
:1008D0009C838B838B819C81892B09F051C03E01C5
:1008E000BDE16B0E711C4301D5018D915D01882323
:1008F00049F0082E000C990B0E94DC0EF301819345
:100900003F01F2CFF30110826CE571E0C4010E9457
:100910000C0F892B19F01E821D8232C061E671E036
:10092000C4010E94ED0E892B19F481E090E01DC0F6
:1009300068E671E0C4010E94ED0E892B19F482E093
:1009400090E013C067E671E0C4010E94ED0E892BB0
:1009500019F483E090E009C06BE671E0C4010E94E5
:100960000C0F892B29F084E090E09E838D8308C0D2
:100970008FEF9FEF9E838D838CE291E09C838B832E
:100980008B819C81892B91F4F7013196D6019E01D0
:100990002A5C3F4F8191982F9F7D41F08D93A21744
:1009A000B307C1F789EC90E09C838B838B819C819A
:1009B000892B09F0ABC0C6010E94260CF82E8F834C
:1009C00098872D813E8122303105D1F1E4F4211543
:1009D000310511F12130310509F07DC0EE24E39499
:1009E000ED8EBE01635E7F4FC8014F960E942003CB
:1009F000ED8EBE01635E7F4FC80186960E94200384
:100A00008FEF8D8F2FC023303105A9F124303105B0
:100A100009F061C01D8E52C0FF24F394FD8EBE010B
:100A2000635E7F4FC8014F960E942003FD8EBE017A
:100A3000635E7F4FC80186960E9420031D8E2DC0E5
:100A40001D8EBE01635E7F4FC8014F960E9420033A
:100A500081E08D8FBE01635E7F4FC80186960E9444
:100A600020031D8EBE01635E7F4FC8018D960E94DC
:100A7000BB02FD8E1AC081E08D8FBE01635E7F4F89
:100A8000C8014F960E9420031D8EBE01635E7F4FFA
:100A9000C80186960E942003FD8EBE01635E7F4FD3
:100AA000C8018D960E94BB021D8EBE01635E7F4F02
:100AB000C801C4960E94BB0281E08D8FBE01635EB7
:100AC0007F4FC8018F5B9F4F0E94090382E791E02F
:100AD0000E94740705C08FA998AD0E94750DB2C021
:100AE0008FA998AD0E94750DD8011E962C911E9766
:100AF0001E961C92C8014896222309F46CC0F80186
:100B0000ED5BFF4F2081211166C012C085E791E0A7
:100B10000E9462074AE0BE01635E7F4F8B819C8129
:100B20000E94440C0E947407F12C2FEF3FEF4BCF33
:100B3000F801238534852F5F3F4F369527953A95E9
:100B40002115FFEF3F0711F421E03FEF2F3F310563
:100B500019F014F02FEF30E0F80136AF25AFFF2485
:100B6000F394F982BE016F5F7F4F0E942003D8018A
:100B7000DD968D919C91DE97AC01415F5F4F9801AE
:100B8000215E3F4FF801B6966F01B801635D7F4F5C
:100B90005B01D4964D014F31510520F5F982BE011C
:100BA0006F5F7F4FC9010E942003F982BE016F5F12
:100BB0007F4FC6010E9420031982BE016F5F7F4FE5
:100BC000C5010E94BB021982BE016F5F7F4FC40145
:100BD0000E94BB0237C01982BE016F5F7F4F0E9427
:100BE000200330C018161906CCF41982BE016F5FBD
:100BF0007F4FC9010E942003F982BE016F5F7F4FC2
:100C0000C6010E9420031982BE016F5F7F4FC5019C
:100C10000E94BB02F80185AD8983D6CFF982BE015F
:100C20006F5F7F4FC9010E9420031982BE016F5F71
:100C30007F4FC6010E942003D801DD968C918195DB
:100C40008983BBCFEC960FB6F894DEBF0FBECDBF45
:100C5000DF91CF911F910F91FF90EF90DF90CF9098
:100C6000BF90AF909F908F907F906F9008951F924C
:100C70000F920FB60F9211242F933F934F935F93D0
:100C80006F937F938F939F93AF93BF93EF93FF9354
:100C900089EB91E00E94D200FF91EF91BF91AF915B
:100CA0009F918F917F916F915F914F913F912F9184
:100CB0000F900FBE0F901F9018951F920F920FB6B6
:100CC0000F9211242F938F939F93EF93FF93E091B3
:100CD000C901F091CA018081E091CF01F091D0016A
:100CE00082FD12C090818091D2018F5F8F7320911D
:100CF000D301821751F0E091D201F0E0E754FE4FAA
:100D0000958F8093D20101C08081FF91EF919F91D7
:100D10008F912F910F900FBE0F901F9018952FB7A6
:100D2000F8946091A5017091A6018091A70190911E
:100D3000A8012FBF0895CF92DF92EF92FF920F93F9
:100D40001F93CF93DF9300D000D0CDB7DEB78C01D7
:100D50000E948F06F801C588D688E788F08CDC01F0
:100D6000CB018C199D09AE09BF09C480D580E680EE
:100D7000F7809801245F3F4F8C159D05AE05BF0598
:100D8000B0F081E08983BE016F5F7F4FC9010E948F
:100D900020030E948F0669837A838B839C83BE0124
:100DA0006F5F7F4FC80143960E94DB0207C0198224
:100DB000BE016F5F7F4FC9010E9420030F900F900B
:100DC0000F900F90DF91CF911F910F91FF90EF90B7
:100DD000DF90CF9008951F920F920FB60F921124BB
:100DE0002F933F938F939F93AF93BF938091A501D0
:100DF0009091A601A091A701B091A8013091A40102
:100E000023E0230F2D3720F40196A11DB11D05C04D
:100E100026E8230F0296A11DB11D2093A401809303
:100E2000A5019093A601A093A701B093A80180917A
:100E3000A9019091AA01A091AB01B091AC010196DA
:100E4000A11DB11D8093A9019093AA01A093AB01AC
:100E5000B093AC01BF91AF919F918F913F912F9132
:100E60000F900FBE0F901F901895CF92DF92EF92C8
:100E7000FF920F931F93CF93DF936C017A018B0145
:100E8000C0E0D0E0CE15DF0589F0D8016D918D016D
:100E9000D601ED91FC910190F081E02DC6010995FC
:100EA000892B11F47E0102C02196ECCFC701DF919E
:100EB000CF911F910F91FF90EF90DF90CF90089509
:100EC0000E94D70E009769F0FC0101900020E9F71D
:100ED0003197AF01481B590BBC0189EB91E00C9491
:100EE000350780E090E00895CF93DF930E9462077A
:100EF000EC018CE891E00E9462078C0F9D1FDF914E
:100F0000CF9108950F931F930E948F066093C101A4
:100F10007093C2018093C3019093C401E091B90121
:100F2000F091BA010284F385E02D89EB91E00995F7
:100F300097FF1FC00E948F060091C1011091C2014E
:100F40002091C3013091C401DC01CB01801B910BC6
:100F5000A20BB30B0091BD011091BE012091BF0106
:100F60003091C00180179107A207B307B8F28FEF45
:100F70009FEF1F910F91089580E480937C008091F2
:100F80007A00806480937A0080917A0086FDFCCF9D
:100F9000809178002091790090E0922B08958F92B3
:100FA0009F92AF92BF92CF92DF92EF92FF926B012E
:100FB0007C010E948F064B015C01C60ED71EE81E05
:100FC000F91E0E948F06681579058A059B0528F091
:100FD000C616D706E806F906A0F7FF90EF90DF9057
:100FE000CF90BF90AF909F908F9008958F929F92D7
:100FF000AF92BF920F931F93CF93DF93CDB7DEB71E
:10100000A1970FB6F894DEBF0FBECDBF19A2423034
:1010100008F44AE08E010F5D1F4F842E912CA12C05
:10102000B12CA50194010E94810CE62FB901CA01DF
:1010300001501109EA3014F4E05D01C0E95CD80107
:10104000EC93232B242B252B61F7C8010E94620708
:10105000A1960FB6F894DEBF0FBECDBFDF91CF9142
:101060001F910F91BF90AF909F908F9008950F9315
:101070001F93CF93DF93EC0188819981009729F02A
:101080002A813B812617370788F48B016F5F7F4FDA
:101090000E940D0E009761F0998388831B830A8359
:1010A0002C813D81232B11F4FC01108281E001C0D1
:1010B00080E0DF91CF911F910F910895CF93DF933F
:1010C000CDB7DEB72A970FB6F894DEBF0FBECDBFFF
:1010D000789484B5826084BD84B5816084BD85B513
:1010E000826085BD85B5816085BD80916E0081601F
:1010F00080936E00109281008091810082608093C5
:1011000081008091810081608093810080918000C6
:101110008160809380008091B10084608093B100F1
:101120008091B00081608093B00080917A008460EB
:1011300080937A0080917A00826080937A00809117
:101140007A00816080937A0080917A008068809331
:101150007A001092C1001092980210929902109297
:101160009A0210929B021092580210925902109209
:101170005A0210925B0268EB7BE080E090E00E94F4
:10118000CF070E944D024B015C0140EDC42E47E0A9
:10119000D42EE12CF12C0E944D02DC01CB018819E8
:1011A0009909AA09BB09883E9340A105B10558F0E9
:1011B00021E0C21AD108E108F10838EE830E33E0CD
:1011C000931EA11CB11CC114D104E104F10419F750
:1011D000E091C901F091CA0182E08083E091C501EC
:1011E000F091C6011082E091C701F091C80180E141
:1011F00080831092D101E091CD01F091CE0186E083
:101200008083E091CB01F091CC018081806180836B
:10121000E091CB01F091CC01808188608083E091E6
:10122000CB01F091CC01808180688083E091CB017B
:10123000F091CC0180818F7D80830E948F06609326
:1012400058027093590280935A0290935B028DE783
:1012500091E00E9462076AE070E080E090E00E9406
:10126000CF0781E080936C028091FF029091000390
:101270009C012F5F3F4F309300032093FF02880FA4
:10128000991FFC01EF5FFC4F8CE992E09183808312
:1012900060E08EE00E94B20161E08DE00E94B20148
:1012A00061E083E00E94B20161E085E00E94B2014A
:1012B00061E082E10E94B20161E083E10E94B2013B
:1012C0008AE090E0A0E0B0E089839A83AB83BC839E
:1012D000BE016F5F7F4F8EE992E00E94DB020E94A9
:1012E000BC079A838983BE016F5F7F4F80EC92E0D9
:1012F0000E94A1021982BE016F5F7F4F89EB92E0CD
:101300000E94090334EFC32EDD24D394E12CF12C89
:1013100018E00E948F06672B682B692B41F40E940E
:101320008F06623071058105910508F4DBC00E94CB
:101330008F066093B5017093B6018093B7019093C7
:10134000B8018090B1019090B201A090B301B0902B
:10135000B401681579058A059B0540F46093B101D5
:101360007093B2018093B3019093B4018090B10166
:101370009090B201A090B301B090B4019B01AC0178
:10138000281939094A095B0949015A013AEF8316BC
:101390009104A104B10408F4A5C06093B101709355
:1013A000B2018093B3019093B401C0926402D092D1
:1013B0006502E0926602F092670210926802109253
:1013C000690210926A0210926B0280915C02909105
:1013D0005D02A0915E02B0915F02809360029093E3
:1013E0006102A0936202B09363020E948F06609331
:1013F0005C0270935D0280935E0290935F020E9494
:101400008F06609358027093590280935A0290930A
:101410005B020E948F064B015C018FE891E00E9405
:1014200062074AE061E070E080E090E00E94F60729
:1014300086E991E00E9462074AE0C501B4010E947A
:10144000F60788E991E00E94620780915C02909122
:101450005D02A0915E02B0915F02A5019401281B7C
:10146000390B4A0B5B0BCA01B9014AE00E94F6072F
:1014700088E991E00E94620780915C0290915D0290
:10148000A0915E02B0915F02809060029090610234
:10149000A0906202B0906302BC01CD016819790985
:1014A0008A099B094AE00E94F6078AE991E00E94B6
:1014B00062070E948F064AE00E94F6078CE991E0DD
:1014C0000E94740765E070E080E090E00E94CF0722
:1014D0000E948F0660935C0270935D0280935E02AF
:1014E00090935F020E94BC079A878987BE01675F5D
:1014F0007F4F80EC92E00E94A1028091AA0289872E
:10150000BE01675F7F4F88EC92E00E940903EDEF18
:10151000F2E0DE011196812F01900D928A95E1F79C
:1015200089819A812B813C8182179307C8F49C01A1
:101530002F5F3F4F3A832983FC013296EE0FFF1F46
:1015400041E050E04C0F5D1FE40FF51F8081918159
:10155000DC01ED91FC910190F081E02D0995E0CF47
:101560008091AD019091AE01A091AF01B091B00119
:101570000196A11DB11D8093AD019093AE01A09382
:10158000AF01B093B0016091D1028DE00E9466017D
:101590006091D80282E10E9466016091DF0283E1DE
:1015A0000E9466016091E60270E083E00E94EE0115
:1015B0006091ED0270E085E00E94EE010E945C0106
:1015C000A8CEBF92CF92DF92EF92FF920F931F931C
:1015D000CF93DF9300D000D0CDB7DEB7E9EBF1E0D9
:1015E0001382128288EE93E0A0E0B0E084839583BA
:1015F000A683B78382E191E09183808385EC90E0BC
:101600009587848784EC90E09787868780EC90E0CC
:10161000918B808B81EC90E0938B828B82EC90E0BD
:10162000958B848B86EC90E0978B868B118E128E37
:10163000138E148EE6E5F2E016821782108611866C
:10164000128613861486158616861786108A118AC6
:10165000128A138A148A158A8DEFE82E82E0F82EFA
:10166000F70113821282158214821782168207EB09
:1016700012E08AE591E0F80191838083148215825B
:1016800016828CE391E093838283108617821486FE
:1016900013861586168626E331E032872187108A65
:1016A0001786138A148A158A928B818B178A168A59
:1016B000128E138E148E92E4C92E91E0D92ED18E03
:1016C000C08E11A212A213A2D0A2C78E10A611A67C
:1016D00012A6D7A2C6A217A610AA11AA88E491E062
:1016E00096A785A716AA17AA10AE95AB84AB109241
:1016F000F5021092F4021092F6021092F7028EE4B4
:1017000091E094AF83AF1092FA021092FB02109214
:10171000FC0284E591E09093F9028093F80219822B
:10172000BE016F5F7F4F88EC92E00E94090319822F
:10173000BE016F5F7F4F8FEC92E00E942003BB24BD
:10174000B394B982BE016F5F7F4F86ED92E00E9435
:101750002003B982BE016F5F7F4F8DED92E00E9442
:1017600020031982BE016F5F7F4F84EE92E00E94DA
:10177000BB021982BE016F5F7F4F8BEE92E00E9429
:10178000BB021982BE016F5F7F4F88EF92E00E941B
:101790000903B982BE016F5F7F4F89EB92E00E941F
:1017A0000903F701828193819C012F5F3F4F3383AF
:1017B0002283880F991FFC01EF5FFC4F1183008388
:1017C000ECE9F2E080E391E091838083148215825A
:1017D000168217821086118684E291E093838283B9
:1017E0001386128616861786108AD586C486158AB1
:1017F000168A178A108E118E128E8AE291E0948BCF
:10180000838B81E090E0A0E0B0E089839A83AB8392
:10181000BC83BE016F5F7F4F8EE992E00E94DB02C6
:101820001982BE016F5F7F4F88EA92E00E94200319
:101830000F900F900F900F90DF91CF911F910F910C
:10184000FF90EF90DF90CF90BF900895FC01882724
:101850009927E89421912032E9F3293010F02E30B5
:10186000C8F32B3241F02D3239F4689404C00E9441
:101870004F0C820F911D219120532A30C0F31EF48A
:10188000909581959F4F0895BB274A3031F4992355
:1018900022F4BDE2909581959F4F0C94580C7AE00C
:1018A000979F902D879F802D910D11240895BB2720
:1018B000FB015527AA27880F991FAA1FA41710F00C
:1018C000A41B83955051B9F7A05DAA3308F0A95D18
:1018D000A193009779F7B111B1931192CB010C94B8
:1018E000710CDC01FC01672F71917723E1F73297CE
:1018F00004C07C916D9370836291AE17BF07C8F3EB
:101900000895A1E21A2EAA1BBB1BFD010DC0AA1F40
:10191000BB1FEE1FFF1FA217B307E407F50720F058
:10192000A21BB30BE40BF50B661F771F881F991FD3
:101930001A9469F760957095809590959B01AC011C
:10194000BD01CF0108952F923F924F925F926F9207
:101950007F928F929F92AF92BF92CF92DF92EF923F
:10196000FF920F931F93CF93DF93CDB7DEB7CA1BC0
:10197000DB0B0FB6F894DEBF0FBECDBF09942A88EB
:10198000398848885F846E847D848C849B84AA8493
:10199000B984C884DF80EE80FD800C811B81AA8120
:1019A000B981CE0FD11D0FB6F894DEBF0FBECDBFEB
:1019B000ED010895EE0FFF1F0590F491E02D0994BD
:1019C000CF93DF938230910510F482E090E0E091B4
:1019D0000703F091080320E030E0C0E0D0E030974A
:1019E00011F14081518148175907C0F04817590734
:1019F00061F482819381209719F09B838A832BC0A5
:101A0000909308038093070326C02115310519F030
:101A10004217530718F49A01BE01DF01EF0102805B
:101A2000F381E02DDCCF2115310509F1281B390B9D
:101A30002430310590F412968D919C911397611585
:101A4000710521F0FB019383828304C09093080306
:101A500080930703FD01329644C0FD01E20FF31F9E
:101A600081939193225031092D933C933AC0209158
:101A7000050330910603232B41F42091020130919C
:101A80000301309306032093050320910001309158
:101A900001012115310541F42DB73EB740910401F4
:101AA00050910501241B350BE0910503F0910603CD
:101AB000E217F307A0F42E1B3F0B2817390778F025
:101AC000AC014E5F5F4F2417350748F04E0F5F1F84
:101AD00050930603409305038193919302C0E0E085
:101AE000F0E0CF01DF91CF9108950F931F93CF9333
:101AF000DF93009709F48CC0FC01329713821282A5
:101B000000910703109108030115110581F420814C
:101B10003181820F931F209105033091060328170E
:101B2000390779F5F0930603E093050371C0D801F6
:101B300040E050E0AE17BF0750F412962D913C9153
:101B40001397AD012115310509F1D901F3CF9D019D
:101B5000DA013383228360817181860F971F821798
:101B6000930769F4EC0128813981260F371F2E5F16
:101B70003F4F318320838A819B8193838283452BCE
:101B800029F4F0930803E093070342C01396FC93F3
:101B9000EE931297ED01499159919E01240F351F43
:101BA000E217F30771F480819181840F951F0296EB
:101BB00011969C938E938281938113969C938E931E
:101BC0001297E0E0F0E0D80112968D919C91139766
:101BD000009719F0F8018C01F6CF8D919C91980136
:101BE0002E5F3F4F820F931F209105033091060314
:101BF0002817390769F4309729F4109208031092D6
:101C0000070302C013821282109306030093050398
:101C1000DF91CF911F910F910895A0E0B0E0E3E133
:101C2000FEE00C94A70CEC01009721F4CB010E947C
:101C3000E00CB8C0FC01E60FF71F9C0122503109EF
:101C4000E217F30708F4ACC0D9010D911C9111976C
:101C500006171707B0F00530110508F49FC0C8013A
:101C600004978617970708F499C002501109061BBC
:101C7000170B019311936D937C93CF010E94750D07
:101C80008DC05B01A01AB10A4C01800E911EA0917B
:101C90000703B091080340E050E0E12CF12C1097CD
:101CA00009F44AC0A815B905D1F56D907C9011973B
:101CB000630182E0C80ED11CCA14DB0480F1A301C9
:101CC0004A195B096A0182E0C80ED11C1296BC90C9
:101CD00012971396AC91B5E0CB16D10440F0B282C6
:101CE000A38351834083D9016D937C930AC00E5F17
:101CF0001F4FC301800F911FF90191838083EB2D4A
:101D0000FA2FE114F10431F0D7011396FC93EE930E
:101D1000129744C0F0930803E09307033FC08D91EE
:101D20009C9111974817590708F4AC017D01129650
:101D30000D90BC91A02DB3CF809105039091060327
:101D400088159905E1F446175707C8F480910001FA
:101D500090910101009741F48DB79EB74091040125
:101D600050910501841B950BE817F907C8F4F0930F
:101D70000603E0930503F901718360830FC0CB0173
:101D80000E94E00C7C01009759F0A801BE010E945E
:101D9000E40ECE010E94750DC70104C0CE0102C041
:101DA00080E090E0CDB7DEB7EEE00C94C30C81E0AC
:101DB00090E0F8940C94260F9111089581568A5161
:101DC00008F4805285580895FB01DC0102C001909F
:101DD0000D9241505040D8F70895FB01DC018D91E0
:101DE000019080190110D9F3990B0895FB01DC01D2
:101DF00001900D920020E1F70895FB01DC014150B4
:101E0000504048F001900D920020C9F701C01D928A
:101E100041505040E0F70895FB0151915523A9F03E
:101E2000BF01DC014D9145174111E1F759F4CD0196
:101E30000190002049F04D9140154111C9F3FB017B
:101E40004111EFCF81E090E001970895F894FFCF22
:101E5000000009038000000000007202410300003E
:101E60000000F30035078B003A01BC009A00AE0079
:101E700000000000DB0200000000DB0200000000A8
:101E80009B0600000000A102000000000903000002
:101E90000000200300000000BB02000000007302ED
:101EA00000000000090300000000430353544F509A
:101EB00000425245414B00434357004D414E55416E
:101EC0004C004F4B004552524F523A2000564D4461
:101ED00050565F317C315F564D4450560D0A0056C6
:101EE0004D4450455F003A323A007C005F564D4405
:041EF0005045000059
:00000001FF
