:100000000C945F000C9487000C9487000C9487007C
:100010000C9487000C9487000C9487000C94870044
:100020000C9487000C9487000C9487000C94870034
:100030000C9487000C9487000C9487000C94870024
:100040000C9482090C9487000C94B70C0C94E90C66
:100050000C9487000C9487000C9487000C94870004
:100060000C9487000C948700000000080002010037
:100070000003040700000000000000000102040863
:100080001020408001020408102001020408102002
:10009000040404040404040402020202020203032E
:1000A0000303030300000000250028002B000000CC
:1000B0000000240027002A002C040D08190D11242B
:1000C0001FBECFEFD8E0DEBFCDBF12E0A0E0B1E0B1
:1000D000E4E8F4E202C005900D92A830B107D9F728
:1000E00023E0A8E0B2E001C01D92AF36B207E1F70D
:1000F00010E0CEEBD0E004C02297FE010E946F0F0B
:10010000C83BD107C9F70E945D0D0C9440120C94B6
:100110000000FC01DB0182819C91981769F091E05D
:1001200094832C9130E090E08217930714F481E0DF
:1001300001C08FEF838301C014828C918283089564
:100140000F931F93CF93DF93EC018B010E948900E3
:100150008D819E81009761F0DC01ED91FC91019011
:10016000F081E02DB801DF91CF911F910F9109949B
:10017000DF91CF911F910F9108950F931F93FC0171
:10018000DB010D911D912D913C911397428153817B
:1001900064817581041715072607370751F081E040
:1001A0008783401751076207730708F08FEF868334
:1001B00001C017824D915D916D917C914283538373
:1001C000648375831F910F910895FC01DB012D91CC
:1001D0003C91828193812817390751F041E0458392
:1001E0008217930710F481E001C08FEF848301C070
:1001F0001582DB018D919C91938382830895FC018C
:10020000DB0182819C91981751F091E094839C913D
:10021000891710F481E001C08FEF838301C014823D
:100220008C91828308950F931F93CF93DF93EC01FA
:100230008B010E94FF008D819E81009761F0DC019F
:10024000ED91FC910190F081E02DB801DF91CF910B
:100250001F910F910994DF91CF911F910F910895F4
:10026000FC01DB012D913C91828193812817390794
:1002700051F041E045838217930714F481E001C0F7
:100280008FEF848301C01582DB018D919C91938354
:1002900082830895CF92DF92EF92FF920F931F9384
:1002A000CF93DF9300D000D0CDB7DEB78C010E9492
:1002B000CC09D8015596CD90DD90ED90FC905897E3
:1002C0006C197D098E099F091496CD90DD90ED90F3
:1002D000FC9017979801245F3F4F6C157D058E05A4
:1002E0009F05E8F081E08983BE016F5F7F4FC90100
:1002F0000E94A000D8015396ED91FC915497E080A4
:10030000F1800E94CC0969837A838B839C83BE0130
:100310006F5F7F4FC8014396F701099507C01982A7
:10032000BE016F5F7F4FC9010E94A0000F900F9028
:100330000F900F90DF91CF911F910F91FF90EF9051
:10034000DF90CF900895BF92CF92DF92EF92FF920D
:100350000F931F93CF93DF931F92CDB7DEB78C011E
:1003600088E591E0D8018D939D936D01F801148289
:100370001582168282E291E093838283108617822F
:10038000148613861586168620E431E0328721878D
:10039000108A1786138A148A158A928B818B178A82
:1003A000168A128E138E148E88E291E0918F808FC0
:1003B00011A212A213A290A3878F10A611A612A6B3
:1003C00097A386A317A610AA11AA86E491E096A780
:1003D00085A716AA17AA10AE95AB84AB16AE15AEBC
:1003E00017AEE05CFF4F10828CE491E0D801DC9600
:1003F0009C938E93DB977801B1E4EB0EF11CF7012F
:1004000012821382148282E591E0918380831982A3
:10041000BE016F5F7F4FC80141960E94890019821B
:10042000BE016F5F7F4FC80148960E94A000BB24A9
:10043000B394B982BE016F5F7F4FC8014F960E948F
:10044000A000B982BE016F5F7F4FC80186960E94EF
:10045000A0001982BE016F5F7F4FC8018D960E9478
:1004600013011982BE016F5F7F4FC801C4960E94BD
:100470001301D701ED91FC910190F081E02D1982DB
:10048000BE016F5F7F4FC7010995D8011296ED91AC
:10049000FC9113970190F081E02DB982BE016F5F4E
:1004A0007F4FC6010995ABE6B2E0ED91FC91119743
:1004B000CF0101968D939C93EE0FFF1FE359FD4FE3
:1004C000118300830F90DF91CF911F910F91FF90C7
:1004D000EF90DF90CF90BF9008950F931F93CF932D
:1004E000DF9300D000D0CDB7DEB740ED57E060E03D
:1004F00070E089E792E00E945B0720E032EC41E087
:1005000050E06EEC72E089E792E00E94710761E0D2
:1005100089E792E00E943107882391F067E071E05B
:100520008091BB029091BC020E94AC0D6AE070E029
:1005300080E090E00E94FB0989E792E00E945A0760
:1005400041E060E089E792E00E94EF07E0916B02F2
:10055000F0916C02CF01019690936C0280936B0234
:10056000EE0FFF1FE359FD4F88E092E091838083F7
:1005700060E08EE00E94030B61E08DE00E94030BBF
:1005800061E083E00E94030B61E085E00E94030BC1
:1005900061E082E10E94030B61E083E10E94030BB2
:1005A000E0910A02F0910B020190F081E02D8AE0C7
:1005B00090E0A0E0B0E089839A83AB83BC83BE0166
:1005C0006F5F7F4F8AE092E00995E0912C02F091F5
:1005D0002D02008111818EE00E945E0A9A83898338
:1005E000BE016F5F7F4F8CE292E0F8010995E091C8
:1005F0002502F09126020190F081E02D1982BE01C2
:100600006F5F7F4F85E292E009950F900F900F90FA
:100610000F90DF91CF911F910F910895CF92DF92AC
:10062000EF92FF920F931F93CF93DF93CDB7DEB777
:1006300028970FB6F894DEBF0FBECDBF0E94CC093D
:10064000672B682B692B39F40E94CC096230710545
:1006500081059105B8F189E792E00E9498066093C0
:1006600071027093720280937302909374020091EE
:10067000750210917602209177023091780260170E
:1006800071078207930740F46093750270937602B6
:100690008093770290937802009175021091760210
:1006A00020917702309178026B017C01C01AD10A47
:1006B000E20AF30A970186010A3F11052105310577
:1006C00008F087C0E0912C02F0912D020081118189
:1006D0008EE00E945E0A9A838983BE016F5F7F4F1E
:1006E0008CE292E0F8010995E0913402F091350234
:1006F0000190F081E02D809116028983BE016F5F29
:100700007F4F84E392E0099588E0E9E6F2E0DE01BC
:10071000119601900D928A95E1F7E981FA818B811A
:100720009C81E817F907C0F4CF0101969A83898369
:100730003296EE0FFF1FCC24C394D12CCC0EDD1EBD
:10074000EC0DFD1D80819181DC01ED91FC9101900A
:10075000F081E02D0995E1CF8091C1029091C20214
:10076000A091C302B091C4020196A11DB11D809356
:10077000C1029093C202A093C302B093C4026091DD
:100780003D028DE00E943C0B6091440282E10E9498
:100790003C0B60914B0283E10E943C0B6091520242
:1007A00070E083E00E947B0A6091590270E085E06E
:1007B0000E947B0A28960FB6F894DEBF0FBECDBF0D
:1007C000DF91CF911F910F91FF90EF90DF90CF902D
:1007D00008956093750270937602809377029093E8
:1007E000780244EF51E060E070E089E792E00E9417
:1007F0009A0661E089E792E00E943107882309F1B7
:1008000061E089E792E00E94B60669E171E08091BB
:10081000BB029091BC020E94AC0D0E94CC09AB01BE
:10082000BC012AE030E08091BB029091BC020E94A2
:100830001D0E89E792E00E941C0789E792E00E9462
:100840005A0765E070E080E090E00E94FB0989E7CC
:1008500092E00E94250736CFCF93DF9300D000D0DF
:10086000CDB7DEB710926C0210926B0210926E023E
:1008700010926D021092700210926F0283E292E069
:100880000E94A3018AE391E09093090280930802F9
:1008900010920C0210920D0210920E0210920F0292
:1008A00010921002109211028EE291E090930B02CE
:1008B00080930A02109213021092120210921602F2
:1008C000109217021092180288E291E0909315029C
:1008D0008093140210921D0210921E0210921F02A9
:1008E00010922002109221021092220284E391E0E1
:1008F00090931C0280931B0281E090E0A0E0B0E0A6
:1009000089839A83AB83BC83BE016F5F7F4F8AE08C
:1009100092E00E94BD001982BE016F5F7F4F84E1AB
:1009200092E00E94A0000F900F900F900F90DF9127
:10093000CF9108959F92AF92BF92CF92DF92EF92A4
:10094000FF920F931F93CF93DF93CDB7DEB7A79797
:100950000FB6F894DEBF0FBECDBF8C01DC0115963B
:100960008C91159715961C928F3F09F042C0198201
:10097000BE016F5F7F4FC80148960E94A000FF2410
:10098000F394F982BE016F5F7F4FC8014F960E94BA
:10099000A000F982BE016F5F7F4FC80186960E945A
:1009A000A0001982BE016F5F7F4FC8018D960E9423
:1009B00013011982BE016F5F7F4FC801C4960E9468
:1009C0001301C8018F5B9F4FDC01ED91FC910190F9
:1009D000F081E02D1982BE016F5F7F4F099526E0FF
:1009E00040E855E260E070E08EEC92E00E94550C29
:1009F00010C0D8011296ED91FC9113970190F081EF
:100A0000E02D81E08983BE016F5F7F4FC8010296B0
:100A100009958EEC92E00E94720B892B09F4D5C0E7
:100A20004AE06EEC72E0CE014D960E945F0E89A105
:100A30009AA1892B09F4C5C06D8D7E8DCE010196DA
:100A40000E943B08AE014D5D5F4FBE016B5D7F4F65
:100A5000CE0101960E94D4088DA19EA182309105FD
:100A600009F445C0D4F4009771F1019709F0A0C0D2
:100A7000FF24F394FFA2BE01695D7F4FC8014F962A
:100A80000E94A000FFA2BE01695D7F4FC80186964B
:100A90000E94A0008FEF8FA33CC08330910509F422
:100AA00049C0049709F084C0C8018F5B9F4FDC01E7
:100AB000ED91FC910190F081E02D1FA2BE01695DD6
:100AC0007F4F099553C0FF24F394FFA2BE01695DD7
:100AD0007F4FC8014F960E94A000FFA2BE01695D32
:100AE0007F4FC80186960E94A0001FA236C01FA299
:100AF000BE01695D7F4FC8014F960E94A00081E052
:100B00008FA3BE01695D7F4FC80186960E94A00039
:100B10001FA2BE01695D7F4FC8018D960E9413011F
:100B20008BA18FA3BE01695D7F4FC801C4960E944F
:100B300013011CC081E08FA3BE01695D7F4FC80116
:100B40004F960E94A0001FA2BE01695D7F4FC801A1
:100B500086960E94A0008BA18FA3BE01695D7F4F86
:100B6000C8018D960E9413011FA2DCCF8DA19EA10A
:100B70008F3FBFEF9B07B9F0049779F0C8018F5BF7
:100B80009F4FDC01ED91FC910190F081E02D21E07F
:100B90002FA3BE01695D7F4F09956BE171E08EEC7B
:100BA00092E00E94B20DCE0101960E942E0809C06B
:100BB000CE0101960E942E08CE014D960E94870E0E
:100BC0009DC0CE014D960E94870EF801268516869F
:100BD000C8014896222329F0ED5BFF4F2081222394
:100BE00039F01982BE016F5F7F4F0E94A00086C05E
:100BF000D8011B962D913C911C972F5F3F4F369546
:100C000027953A952115BFEF3B0719F451E04FEFB7
:100C100002C0522F432F252F342F2F3F310519F0BB
:100C200014F02FEF30E0D801DE963C932E93DD9741
:100C3000992493949982BE016F5F7F4F0E94A00018
:100C4000F80125AD36ADA901415F5F4FC8014F9650
:100C5000B8016A5D7F4F7B01D8019D966D01F496C6
:100C60005F014F315105E0F49982BE016F5F7F4F04
:100C70000E94A0009982BE016F5F7F4FC7010E9452
:100C8000A0001982BE016F5F7F4FC6010E94130151
:100C90001982BE016F5F7F4FC5010E9413012EC0F4
:100CA00012161306CCF41982BE016F5F7F4F0E94AB
:100CB000A0009982BE016F5F7F4FC7010E94A00014
:100CC0001982BE016F5F7F4FC6010E941301D801D8
:100CD000DD968C918983DDCF9982BE016F5F7F4F56
:100CE0000E94A0001982BE016F5F7F4FC7010E9462
:100CF000A000F80185AD81958983C4CFA7960FB672
:100D0000F894DEBF0FBECDBFDF91CF911F910F9141
:100D1000FF90EF90DF90CF90BF90AF909F9008959D
:100D2000FC012489148A213011F40C949A0408954A
:100D30000C94CC09CF93DF93EC014E875F87688BCF
:100D4000798B1A8A1B8A1C8A1D8A4E815F8168856D
:100D500079854A875B876C877D870E94CC096E8383
:100D60007F8388879987DF91CF910895BF92CF9233
:100D7000DF92EF92FF920F931F93CF93DF938C013B
:100D8000B62E0E94CC096B017C01E801CE5BDF4FDF
:100D90006AE571E0888199810E94AC0D4AE050E0DB
:100DA0006B2D888199810E942A0E61E671E088810D
:100DB00099810E94AC0D2AE030E0B701A60188813C
:100DC00099810E941D0E63E671E0888199810E94DD
:100DD000AC0DF80186819781A085B185B701A60188
:100DE000481B590B6A0B7B0B2AE030E08881998104
:100DF0000E941D0E63E671E0888199810E94AC0D0E
:100E0000F801468157816085718582859385A48527
:100E1000B585481B590B6A0B7B0B2AE030E08881B3
:100E20009981DF91CF911F910F91FF90EF90DF900B
:100E3000CF90BF900C941D0E8E5B9F4F65E671E0C6
:100E4000FC01808191810C94B20DCF93DF93EC0172
:100E50000E94CC096E837F8388879987DF91CF9129
:100E600008950F931F93CF93DF93EC01611116C088
:100E70000E94CC090A811B812C813D81601B710B72
:100E8000820B930B623371058105910538F463E0A1
:100E900070E080E090E00E94FB09EACF0E94CC095C
:100EA0006A837B838C839D8381E0DF91CF911F9147
:100EB0000F9108950895FC01EC5BFF4F10821182A1
:100EC00012821382FC011282138214821582411550
:100ED00051056105710521F0CB01BA010C94FB09A4
:100EE0000895FB01BA01A9018E5B9F4FDC01ED93D0
:100EF000FC9326E0CF010C94550C8E5B9F4FDC01D8
:100F00008D919C91DC01ED91FC910680F781E02DA3
:100F1000099508958E5B9F4FDC018D919C91DC01BA
:100F2000ED91FC910480F581E02D099508951F93C2
:100F3000CF93DF93EC01162F0E94CC096A837B8349
:100F40008C839D83CE5BDF4F6CE671E08881998155
:100F50000E94AC0D4AE050E0612F888199810E9487
:100F60002A0E63E771E0888199810E94AC0D62E3EB
:100F700070E080E090E0DF91CF911F910C94FB092D
:100F80001F93CF93DF93EC01162F8E89882311F1E5
:100F9000CE010E948A07811102C085E61CC0CE01E5
:100FA0000E948A078823C9F3CE010E947D078836F4
:100FB00089F048F4883569F0833689F7612FCE01CE
:100FC0000E94970707C0813729F0863741F786E7E7
:100FD00002C01E8A83E6DF91CF911F9108950F937F
:100FE0001F93CF93DF931F92CDB7DEB78C016111B2
:100FF00008C0F801468B0F90DF91CF911F910F91A0
:10100000089581E0F801868B60E0C80149830E9461
:10101000C00749818336C1F7ECCF10927F0210924E
:10102000800210928102109282021092830210922A
:10103000840210928502109286021092870210920A
:1010400088021092890210928A0210928B021092EA
:101050008C0210928D0210928E02089526EE31E0DD
:10106000FC0131832083089526EE31E0FC013183B9
:1010700020830C946C0DFC0186EE91E091838083BB
:10108000138212821582148217821682CF0108966B
:1010900024E1FC0111922A95E9F743E150E00C9418
:1010A000A311AF92BF92CF92DF92EF92FF920F9374
:1010B0001F93CF93DF93CDB7DEB72A970FB6F8947F
:1010C000DEBF0FBECDBF8C016B01CE0101967C014E
:1010D0005C01F60181916F01882349F0992787FD12
:1010E00090950E948211F70181937F01F2CFF70161
:1010F000108264EC71E0C5010E94B211892B21F0CD
:10110000F8011582148234C069EC71E0C5010E94B7
:101110009311892B19F481E090E01DC060ED71E01E
:10112000C5010E949311892B19F482E090E013C04D
:101130006FEC71E0C5010E949311892B19F483E0D3
:1011400090E009C063ED71E0C5010E94B211892BE6
:1011500031F084E090E0F8019583848309C08FEF3B
:101160009FEFF801958384838CE291E093838283DF
:101170002A960FB6F894DEBF0FBECDBFDF91CF9198
:101180001F910F91FF90EF90DF90CF90BF90AF90A5
:101190000895CF93DF93EC01CB010E9464119F83EC
:1011A0008E83DF91CF9108958F929F92AF92BF92DD
:1011B000CF92DF92EF92FF920F931F93CF93DF9323
:1011C000CDB7DEB76A970FB6F894DEBF0FBECDBFBE
:1011D0008C015B014A01BE01655F7F4F8AE0DB0144
:1011E0001D928A95E9F76E01B5E1CB0ED11C86E020
:1011F000F60111928A95E9F7C8010896FB019E0154
:101200002C5E3F4F7C01DC014C910196542F5F7D99
:1012100061F07C014193E217F307A1F788EC90E0BD
:10122000D80113969C938E931297F8018281938133
:10123000892B19F4C8010E945108D80112968D918A
:101240009C911397892B91F4D7011196F601CE0149
:101250004A962D91322F3F7D49F02193E817F907E7
:10126000C1F789EC90E0F80193838283D80112964C
:101270008D919C911397892B21F4B601C8010E948E
:10128000C908F80182819381892B59F48481958161
:10129000D5018D939C9386819781F40191838083FE
:1012A0001EC06AED71E08EEC92E00E94AC0D4AE047
:1012B000BE016F5F7F4FD80112968D919C9113975D
:1012C0000E94CC11BC018EEC92E00E94B20D8FEF17
:1012D0009FEFF50191838083D4011D921C926A9641
:1012E0000FB6F894DEBF0FBECDBFDF91CF911F9137
:1012F0000F91FF90EF90DF90CF90BF90AF909F90B5
:101300008F9008951F920F920FB60F9211242F9372
:101310003F938F939F93AF93BF938091C602909119
:10132000C702A091C802B091C9023091C50223E062
:10133000230F2D3720F40196A11DB11D05C026E80D
:10134000230F0296A11DB11D2093C5028093C602F2
:101350009093C702A093C802B093C9028091CA02B9
:101360009091CB02A091CC02B091CD020196A11D2B
:10137000B11D8093CA029093CB02A093CC02B0938C
:10138000CD02BF91AF919F918F913F912F910F907F
:101390000FBE0F901F9018952FB7F8946091C6025A
:1013A0007091C7028091C8029091C9022FBF089521
:1013B0003FB7F8948091CA029091CB02A091CC02E1
:1013C000B091CD0226B5A89B05C02F3F19F001961C
:1013D000A11DB11D3FBF6627782F892F9A2F620F5D
:1013E000711D811D911D42E0660F771F881F991F97
:1013F0004A95D1F70895CF92DF92EF92FF92CF9363
:10140000DF936B017C010E94D809EB01C114D10468
:10141000E104F10489F00E944A0F0E94D8096C1B74
:101420007D0B683E734090F381E0C81AD108E10853
:10143000F108C851DC4FEACFDF91CF91FF90EF90D8
:10144000DF90CF900895789484B5826084BD84B590
:10145000816084BD85B5826085BD85B5816085BDAF
:10146000EEE6F0E0808181608083E1E8F0E01082C8
:10147000808182608083808181608083E0E8F0E009
:10148000808181608083E1EBF0E0808184608083F3
:10149000E0EBF0E0808181608083EAE7F0E080812A
:1014A000846080838081826080838081816080838A
:1014B0008081806880831092C10008958E3008F08A
:1014C0008E5087702091060190E4299F900111248D
:1014D000822B80937C0080917A00806480937A00D4
:1014E00080917A0086FDFCCF809178002091790070
:1014F00090E0922B08951F93CF93DF93182FEB0169
:1015000061E00E94030B209711F460E004C0CF3F1C
:10151000D10539F461E0812FDF91CF911F910C94B7
:101520003C0BE12FF0E0E859FF4FE491E330F9F094
:1015300048F4E130B9F0E230A1F584B5806284BDB1
:10154000C8BD34C0E730E9F0E83019F1E43049F5BE
:1015500080918000806280938000D0938B00C09344
:101560008A0024C084B5806884BDC7BD1FC0809137
:101570008000806880938000D0938900C0938800A9
:1015800015C08091B00080688093B000C093B30014
:101590000DC08091B00080628093B000C093B40011
:1015A00005C0C038D1050CF0B5CFAFCFDF91CF91DA
:1015B0001F910895833081F028F4813099F08230B2
:1015C000A1F008958730A9F08830B9F08430D1F4C3
:1015D000809180008F7D03C0809180008F77809301
:1015E0008000089584B58F7702C084B58F7D84BD57
:1015F00008958091B0008F7703C08091B0008F7DF7
:101600008093B0000895CF93DF9390E0FC01E458FD
:10161000FF4F2491FC01E057FF4F8491882349F14B
:1016200090E0880F991FFC01E255FF4FA591B491FE
:101630008C559F4FFC01C591D4919FB7611108C093
:10164000F8948C91209582238C93888182230AC000
:10165000623051F4F8948C91322F309583238C931F
:101660008881822B888304C0F8948C91822B8C9380
:101670009FBFDF91CF9108950F931F93CF93DF9377
:101680001F92CDB7DEB7282F30E0F901E859FF4FA0
:101690008491F901E458FF4F1491F901E057FF4F8D
:1016A00004910023C9F0882321F069830E94DA0A9B
:1016B0006981E02FF0E0EE0FFF1FEC55FF4FA59181
:1016C000B4919FB7F8948C91611103C01095812358
:1016D00001C0812B8C939FBF0F90DF91CF911F9101
:1016E0000F910895FC01818D228D90E0805C9F4FC9
:1016F000821B91098F7399270895FC01918D828D2A
:10170000981731F0828DE80FF11D858D90E00895D6
:101710008FEF9FEF0895FC01918D828D981761F0F6
:10172000828DDF01A80FB11D5D968C91928D9F5F18
:101730009F73928F90E008958FEF9FEF08958FE051
:101740009DE0892B49F080E090E0892B29F00E94F0
:101750000F0D81110C9400000895FC01848DDF01B0
:10176000A80FB11DA35ABF4F2C91848D90E0019614
:101770008F739927848FA689B7892C93A089B18903
:101780008C9180648C93938D848D981306C002880D
:10179000F389E02D80818F7D80830895CF93DF933F
:1017A000EC01888D8823C9F0EA89FB89808185FD59
:1017B00005C0A889B9898C9186FD0FC00FB607FCBA
:1017C000F5CF808185FFF2CFA889B9898C9185FFFB
:1017D000EDCFCE010E94AD0BE7CFDF91CF91089501
:1017E000CF92DF92FF920F931F93CF93DF931F92BD
:1017F000CDB7DEB76C0181E0D60158968C9358972F
:101800005B969C915B975C968C915C97981307C054
:101810005096ED91FC915197808185FD2EC0F60187
:10182000038D10E00F5F1F4F0F731127F02EF6018D
:10183000848DF81211C00FB607FCF9CFD60150966F
:10184000ED91FC915197808185FFF1CFC6016983AD
:101850000E94AD0B6981EBCF838DE80FF11DE35A38
:10186000FF4F6083D6015B960C935B975296ED9188
:10187000FC915397808180620CC0D6015696ED9101
:10188000FC91579760835096ED91FC915197808120
:101890008064808381E090E00F90DF91CF911F9171
:1018A0000F91FF90DF90CF900895BF92CF92DF927B
:1018B000EF92FF92CF93DF93EC016A017B01B22E8E
:1018C000E889F98982E08083411581EE5807610536
:1018D0007105A1F060E079E08DE390E0A701960149
:1018E0000E944B0F215031094109510956954795E6
:1018F00037952795211580E1380798F0E889F9890F
:10190000108260E874E88EE190E0A70196010E94E1
:101910004B0F21503109410951095695479537958B
:101920002795EC85FD853083EE85FF852083188E15
:10193000EC89FD89B082EA89FB898081806180839E
:10194000EA89FB89808188608083EA89FB898081BC
:1019500080688083EA89FB8980818F7D8083DF9125
:10196000CF91FF90EF90DF90CF90BF9008951F929E
:101970000F920FB60F9211242F938F939F93EF9393
:10198000FF93E091DE02F091DF028081E091E402BA
:10199000F091E50282FD12C090818091E7028F5F95
:1019A0008F732091E802821751F0E091E702F0E096
:1019B000E253FD4F958F8093E70201C08081FF9134
:1019C000EF919F918F912F910F900FBE0F901F90CD
:1019D00018951F920F920FB60F9211242F933F93D9
:1019E0004F935F936F937F938F939F93AF93BF9327
:1019F000EF93FF938EEC92E00E94AD0BFF91EF917D
:101A0000BF91AF919F918F917F916F915F914F9116
:101A10003F912F910F900FBE0F901F9018958EEC55
:101A200092E00E94720B21E0892B09F420E0822FC2
:101A300008951092D1021092D00288EE93E0A0E0B7
:101A4000B0E08093D2029093D302A093D402B093DB
:101A5000D5028EEE91E09093CF028093CE0285EC7A
:101A600090E09093DB028093DA0284EC90E0909314
:101A7000DD028093DC0280EC90E09093DF028093A3
:101A8000DE0281EC90E09093E1028093E00282EC30
:101A900090E09093E3028093E20286EC90E09093D2
:101AA000E5028093E4021092E7021092E80210929D
:101AB000E9021092EA02089508950E94230A0E9402
:101AC0005C0D0E946D02CFE9DBE00E940E032097BF
:101AD000E1F30E949F0BF9CF0C940B10CF92DF9291
:101AE000EF92FF920F931F93CF93DF936C017A01D4
:101AF000EB01E60EF71E00E010E0CE15DF0561F009
:101B00006991D601ED91FC910190F081E02DC60123
:101B10000995080F191FF1CFC801DF91CF911F91CF
:101B20000F91FF90EF90DF90CF90089561157105B0
:101B300081F0DB010D900020E9F7AD014150510922
:101B4000461B570BDC01ED91FC910280F381E02DE7
:101B5000099480E090E008950C94960D69E771E097
:101B60000C94960D0F931F93CF93DF93EC010E947B
:101B7000960D8C01CE010E94AE0D800F911FDF915A
:101B8000CF911F910F9108958F929F92AF92BF9224
:101B9000CF92DF92EF92FF920F931F93CF93DF9339
:101BA000CDB7DEB7A1970FB6F894DEBF0FBECDBF9D
:101BB0007C01C42EE52FCB01D22E19A221E02D15D8
:101BC00010F02AE0D22E8E010F5D1F4F8D2C912C2C
:101BD000A12CB12C6C2D7E2FA50194010E944B0FDE
:101BE0008C2DD29E80191124015011098A3014F4D1
:101BF000805D01C0895CF8018083211531054105B4
:101C0000510521F0C22EE32FCA01E4CFB801C7016C
:101C10000E94960DA1960FB6F894DEBF0FBECDBF01
:101C2000DF91CF911F910F91FF90EF90DF90CF90B8
:101C3000BF90AF909F908F9008952115310541F48A
:101C4000DC01ED91FC910190F081E02D642F09946D
:101C50000C94C40D9A01462F50E060E070E00C94A3
:101C60001D0E0F931F93CF93DF93EC010E94CC09BD
:101C7000688779878A879B87E881F9810680F78161
:101C8000E02DCE01099597FF15C00E94CC0908856B
:101C900019852A853B85601B710B820B930B0C8188
:101CA0001D812E813F81601771078207930720F302
:101CB0008FEF9FEFDF91CF911F910F910895EF92DA
:101CC000FF920F931F93CF93DF93EC018B01E42ED0
:101CD0006BE771E00E94F50EC8010E94310EFF24EF
:101CE000E7FCF09497FD0BC08E159F0541F0682F1F
:101CF000CE010E94370FC8010E94310EF3CFCE01F2
:101D0000DF91CF911F910F91FF90EF900895FC010B
:101D1000808191810C940B10CF93DF93EC0188812B
:101D20009981009711F00E940B10198218821D8270
:101D30001C821B821A82DF91CF9108950F931F930B
:101D4000CF93DF93EC018B016F5F7F4F8881998187
:101D50000E949A10009731F0998388831B830A832D
:101D600081E001C080E0DF91CF911F910F91089534
:101D7000CF93DF93EC0188819981892B29F08A81A7
:101D80009B818617970760F4CE010E949E0E8823E0
:101D900041F08C819D81892B19F4E881F9811082B1
:101DA00081E0DF91CF910895EF92FF920F931F93FF
:101DB000CF93DF93EC017B018A01BA010E94B80E38
:101DC000811104C0CE010E948C0E07C01D830C83BC
:101DD000B701888199810E949C11CE01DF91CF913A
:101DE0001F910F91FF90EF900895FC0111821082D6
:101DF00013821282158214826115710559F0FB015C
:101E000001900020E9F7AF0141505109461B570BE3
:101E10000C94D40E0895EF92FF920F931F93CF93DB
:101E2000DF93EC017B010C811D816115710511F4BB
:101E300080E016C04115510591F0040F151FB8013F
:101E40000E94B80E8823A1F3288139818C819D815D
:101E5000B701820F931F0E949C111D830C8381E0A8
:101E6000DF91CF911F910F91FF90EF900895CF9345
:101E7000DF9300D0CDB7DEB769831A8241E050E02E
:101E8000BE016F5F7F4F0E940B0F0F900F90DF918D
:101E9000CF9108950895A1E21A2EAA1BBB1BFD0144
:101EA0000DC0AA1FBB1FEE1FFF1FA217B307E40739
:101EB000F50720F0A21BB30BE40BF50B661F771F91
:101EC000881F991F1A9469F7609570958095909571
:101ED0009B01AC01BD01CF010895EE0FFF1F0590DE
:101EE000F491E02D0994CF93DF938230910510F4A3
:101EF00082E090E0E0916D03F0916E0320E030E02D
:101F0000A0E0B0E0309739F140815181481759077E
:101F1000B8F04817590771F482819381109729F01E
:101F200013969C938E9312972CC090936E0380937C
:101F30006D0327C02115310531F04217530718F002
:101F4000A901DB0101C0EF019A01BD01DF0102809F
:101F5000F381E02DD7CF21153105F9F0281B390B7E
:101F60002430310580F48A819B816115710521F04F
:101F7000FB019383828304C090936E0380936D036F
:101F8000FE01329644C0FE01E20FF31F819391934C
:101F900022503109398328833AC020916B03309154
:101FA0006C03232B41F42091020130910301309303
:101FB0006C0320936B0320910001309101012115E6
:101FC000310541F42DB73EB7409104015091050110
:101FD000241B350BE0916B03F0916C03E217F307C0
:101FE000A0F42E1B3F0B2817390778F0AC014E5F89
:101FF0005F4F2417350748F04E0F5F1F50936C0357
:1020000040936B038193919302C0E0E0F0E0CF0135
:10201000DF91CF910895CF93DF93009709F487C0A4
:10202000FC01329713821282C0916D03D0916E032E
:10203000209781F420813181280F391F80916B0313
:1020400090916C038217930779F5F0936C03E093FA
:102050006B036DC0DE0120E030E0AE17BF0750F427
:1020600012964D915C9113979D014115510509F10F
:10207000DA01F3CFB383A28340815181840F951F8E
:102080008A179B0771F48D919C911197840F951F6E
:1020900002969183808312968D919C9113979383DE
:1020A00082832115310529F4F0936E03E0936D03CB
:1020B0003EC0D9011396FC93EE9312974D915D911A
:1020C000A40FB51FEA17FB0779F480819181840F73
:1020D000951F0296D90111969C938E9382819381CC
:1020E00013969C938E931297E0E0F0E08A819B8197
:1020F000009719F0FE01EC01F9CFCE01029628817C
:102100003981820F931F20916B0330916C03281744
:10211000390769F4309729F410926E0310926D0319
:1021200002C013821282D0936C03C0936B03DF91C1
:10213000CF910895A0E0B0E0E0EAF0E10C940D1238
:10214000EC01CB01209719F40E94730FB8C0FE0177
:10215000E60FF71F9E0122503109E217F30708F43A
:10216000ACC0D9010D911C91119706171707B8F053
:102170000530110508F49FC0A801445051094617C5
:10218000570708F498C002501109061B170B01935A
:1021900011936D937C93CF010E940B108CC05B0157
:1021A000A01AB10A4E01800E911EA0916D03B0914C
:1021B0006E03612C712C60E070E0109709F449C047
:1021C000A815B905C9F5ED90FC901197670142E09B
:1021D000C40ED11CCA14DB0478F147018A189B088D
:1021E000640142E0C40ED11C1296BC901297139663
:1021F000AC91B5E0CB16D10440F0B282A3839182BA
:102200008082D9018D939C9309C00E5F1F4F0E0DE4
:102210001F1DF90111830083EB2DFA2F6115710544
:1022200031F0DB011396FC93EE93129744C0F093C8
:102230006E03E0936D033FC06D917C91119766161C
:10224000770608F43B01BD0112960D90BC91A02DBC
:10225000B4CF60916B0370916C0368157905E9F454
:1022600068167906D0F440910001509101014115A2
:10227000510541F44DB75EB76091040170910501BD
:10228000461B570BE417F507C0F4F0936C03E0937B
:102290006B03F901918380830EC00E94730F7C0150
:1022A000009759F0A801BE010E948A11CE010E9438
:1022B0000B10C70104C0CE0102C080E090E0CDB792
:1022C000DEB7EEE00C942912FC0188279927E894E8
:1022D00021912032E9F3293010F02E30C8F32B324F
:1022E00041F02D3239F4689404C00E94D711820F56
:1022F000911D219120532A30C0F31EF490958195B1
:102300009F4F08959111089581568A5108F4805283
:1023100085580895FB01DC0102C001900D924150E7
:102320005040D8F70895FB01DC018D910190801990
:102330000110D9F3990B0895FB01DC0101900D9276
:102340000020E1F70895FB01DC014150504048F0C6
:1023500001900D920020C9F701C01D9241505040DC
:10236000E0F70895FB0151915523A9F0BF01DC016D
:102370004D9145174111E1F759F4CD01019000202D
:1023800049F04D9140154111C9F3FB014111EFCFC7
:1023900081E090E001970895BB274A3031F49923FA
:1023A00022F4BDE2909581959F4F0C94E0117AE064
:1023B000979F902D879F802D910D11240895BB2705
:1023C000FB015527AA27880F991FAA1FA41710F0F1
:1023D000A41B83955051B9F7A05DAA3308F0A95DFD
:1023E000A193009779F7B111B1931192CB010C949D
:1023F000F911DC01FC01672F71917723E1F7329726
:1024000004C07C916D9370836291AE17BF07C8F3CF
:1024100008952F923F924F925F926F927F928F9288
:102420009F92AF92BF92CF92DF92EF92FF920F9363
:102430001F93CF93DF93CDB7DEB7CA1BDB0B0FB66D
:10244000F894DEBF0FBECDBF09942A88398848882A
:102450005F846E847D848C849B84AA84B984C884C0
:10246000DF80EE80FD800C811B81AA81B981CE0FB7
:10247000D11D0FB6F894DEBF0FBECDBFED0108959C
:04248000F894FFCFFE
:1024840000006F03800001564D4450565F317C318B
:102494005F564D4450560D0A007C004F4B0000001F
:1024A4000000890000000000A00000000000BD0042
:1024B40000000000BD00000000004A010000000010
:1024C400E5000000000013010000000030010000DE
:1024D40000008900000000009006564D4450455FFE
:1024E400003A323A005F564D44504500564D445030
:1024F400435F005F564D4450430D0A004572726FAE
:10250400723A20417474656D707420746F20736521
:1025140074206120726561642D6F6E6C7920766120
:10252400726961626C65206F7220646174612074E9
:10253400797065206E6F7420737570706F72746536
:10254400640D0A0053544F5000425245414B00431E
:102554004357004D414E55414C004552524F523A5B
:102564002000000000002E08340800000000F00BDA
:102574006E0D720B8B0B7D0BCE0B6E616E00696E54
:0825840066006F7666002E0070
:107800000C94343C0C94513C0C94513C0C94513CE1
:107810000C94513C0C94513C0C94513C0C94513CB4
:107820000C94513C0C94513C0C94513C0C94513CA4
:107830000C94513C0C94513C0C94513C0C94513C94
:107840000C94513C0C94513C0C94513C0C94513C84
:107850000C94513C0C94513C0C94513C0C94513C74
:107860000C94513C0C94513C11241FBECFEFD8E036
:10787000DEBFCDBF11E0A0E0B1E0ECE9FFE702C060
:1078800005900D92A230B107D9F712E0A2E0B1E065
:1078900001C01D92AD30B107E1F70E942D3D0C945F
:1078A000CC3F0C94003C982F959595959595959582
:1078B000905D8F708A307CF0282F295A8091C0000B
:1078C00085FFFCCF9093C6008091C00085FFFCCF60
:1078D0002093C6000895282F205DF0CF982F809127
:1078E000C00085FFFCCF9093C6000895EF92FF92F1
:1078F0000F931F93EE24FF2487018091C00087FD22
:1079000017C00894E11CF11C011D111D81E4E8164B
:1079100082E4F8068FE0080780E0180770F3E09132
:107920000401F091050109958091C00087FFE9CF1E
:107930008091C6001F910F91FF90EF9008950E94D3
:10794000763C982F8091C00085FFFCCF9093C600B5
:1079500091362CF490330CF09053892F089597555D
:10796000892F08951F930E949F3C182F0E949F3CCF
:107970001295107F810F1F9108951F93182F882350
:1079800021F00E94763C1150E1F71F9108951F935A
:10799000182F0E94763C803249F0809103018F5F5E
:1079A000809303018530C1F01F9108958091C0003C
:1079B00085FFFCCF84E18093C6008091C00085FFE5
:1079C000FCCF1093C6008091C00085FFFCCF80E102
:1079D0008093C6001F910895E0910401F091050184
:1079E00009951F9108950E94763C803241F0809164
:1079F00003018F5F80930301853081F008958091AA
:107A0000C00085FFFCCF84E18093C6008091C00058
:107A100085FFFCCF80E18093C6000895E0910401CA
:107A2000F09105010995089540E951E08823A1F0FE
:107A30002D9A28EE33E0FA013197F1F721503040CA
:107A4000D1F72D9828EE33E0FA013197F1F7215064
:107A50003040D1F7815061F708953F924F925F9285
:107A60006F927F928F929F92AF92BF92CF92DF924E
:107A7000EF92FF920F931F93CF93DF93000080E16B
:107A80008093C4001092C50088E18093C10086E015
:107A90008093C2005098589A259A81E00E94143D24
:107AA00024E1F22E9EE1E92E85E9D82E0FE0C02ECA
:107AB00010E1B12EAA24A394B1E49B2EA6E58A2E50
:107AC000F2E57F2EE0E26E2E79E4572E63E5462E36
:107AD00050E5352E0E94763C8033B1F18133B9F107
:107AE000803409F46FC0813409F476C0823409F41B
:107AF00085C0853409F488C0803531F1823521F1A3
:107B0000813511F1853509F485C0863509F48DC0BC
:107B1000843609F496C0843709F403C1853709F423
:107B200072C1863709F466C0809103018F5F80932C
:107B30000301853079F6E0910401F0910501099582
:107B40000E94763C803351F60E94F33CC3CF0E94E2
:107B5000763C803249F78091C00085FFFCCFF092DF
:107B6000C6008091C00085FFFCCF9092C600809136
:107B7000C00085FFFCCF8092C6008091C00085FFC9
:107B8000FCCF7092C6008091C00085FFFCCF609250
:107B9000C6008091C00085FFFCCF5092C600809146
:107BA000C00085FFFCCF4092C6008091C00085FFD9
:107BB000FCCF3092C6008091C00085FFFCCFB09210
:107BC000C60088CF0E94763C863808F4BDCF0E945C
:107BD000763C0E94F33C7ECF0E94763C803809F4CC
:107BE0009CC0813809F40BC1823809F43CC1883942
:107BF00009F48FC080E00E94C73C6CCF84E10E94F2
:107C0000BD3C0E94F33C66CF85E00E94BD3C0E94D3
:107C1000F33C60CF0E94763C809306010E94763C44
:107C2000809307010E94F33C55CF0E94763C80333D
:107C300009F41DC183E00E94BD3C80E00E94C73C66
:107C400049CF0E94763C809309020E94763C809343
:107C5000080280910C028E7F80930C020E94763C79
:107C6000853409F415C18091080290910902892B8D
:107C700089F000E010E00E94763CF801E85FFE4FDA
:107C800080830F5F1F4F80910802909109020817AF
:107C9000190788F30E94763C803209F045CF809125
:107CA0000C0280FF01C16091060170910701660F0F
:107CB000771F7093070160930601A0910802B091AD
:107CC00009021097C9F0E8E0F1E09B01AD014E0F09
:107CD0005F1FF999FECF32BD21BD819180BDFA9A17
:107CE000F99A2F5F3F4FE417F50799F76A0F7B1F4B
:107CF00070930701609306018091C00085FFFCCF5F
:107D0000F092C6008091C00085FFFCCFB092C60003
:107D1000E1CE83E00E94C73CDDCE82E00E94C73CFA
:107D2000D9CE0E94763C809309020E94763C8093D3
:107D300008028091060190910701880F991F909386
:107D40000701809306010E94763C853409F4A6C0A1
:107D500080910C028E7F80930C020E94763C8032D0
:107D600009F0B8CE8091C00085FFFCCFF092C6002C
:107D7000609108027091090261157105B9F140E046
:107D800050E080910C02A82FA170B82FB27011C0E2
:107D9000BB2309F45CC0E0910601F0910701319624
:107DA000F0930701E09306014F5F5F4F46175707B7
:107DB000E8F4AA2369F3F999FECF209106013091E6
:107DC000070132BD21BDF89A90B58091C00085FFB2
:107DD000FCCF9093C6002F5F3F4F30930701209355
:107DE00006014F5F5F4F4617570718F38091C00099
:107DF00085FDE5CE8091C00085FFF8CFE0CE81E023
:107E00000E94C73C67CE0E94763C803209F08CCE3F
:107E10008091C00085FFFCCFF092C6008091C00029
:107E200085FFFCCFE092C6008091C00085FFFCCFAB
:107E3000D092C6008091C00085FFFCCFC092C600E2
:107E40008091C00085FFFCCFB092C60043CEE09188
:107E50000601F091070194918091C00085FFFCCF4D
:107E60009093C6009CCF80E10E94C73C33CE0E9415
:107E7000763C0E94763C182F0E94763C112309F430
:107E800083C0113009F484C08FE00E94C73C22CE29
:107E900080910C02816080930C02E5CE80910C02EF
:107EA000816080930C0259CF809107018823880F4D
:107EB000880B8A2180930B02809106019091070123
:107EC000880F991F90930701809306018091080203
:107ED00080FF09C080910802909109020196909359
:107EE000090280930802F894F999FECF1127E091D6
:107EF0000601F0910701C8E0D1E08091080290915D
:107F00000902103091F40091570001700130D9F34B
:107F100003E000935700E89500915700017001308D
:107F2000D9F301E100935700E89509901990009169
:107F3000570001700130D9F301E000935700E89534
:107F40001395103498F011270091570001700130FB
:107F5000D9F305E000935700E895009157000170B0
:107F60000130D9F301E100935700E895329602976A
:107F700009F0C7CF103011F00296E5CF112480919F
:107F8000C00085FFB9CEBCCE8EE10E94C73CA2CD19
:0C7F900085E90E94C73C9ECDF894FFCF0D
:027F9C00800063
:040000030000780081
:00000001FF