:100000000C945D000C9485000C9485000C94850084
:100010000C9485000C9485000C9485000C9485004C
:100020000C9485000C9485000C9485000C9485003C
:100030000C9485000C9485000C9485000C9485002C
:100040000C9481070C9485000C944F070C9429079D
:100050000C9485000C9485000C9485000C9485000C
:100060000C9485000C9485000000000024002700FB
:100070002A0000000000250028002B0004040404CE
:100080000404040402020202020203030303030342
:10009000010204081020408001020408102001021F
:1000A00004081020000000080002010000030407FB
:1000B0000000000000000000CB0711241FBECFEF9E
:1000C000D8E0DEBFCDBF22E0A0E8B1E001C01D92C4
:1000D000A739B207E1F711E0A0E0B1E0E2EDF9E104
:1000E00002C005900D92A038B107D9F710E0CDE518
:1000F000D0E004C02197FE010E949B0ACC35D107B5
:10010000C9F70E94FE080C94E70C0C94000080E4F0
:1001100080937C0080917A00806480937A00809143
:100120007A0086FDFCCF809178002091790090E0E4
:10013000922B0895CF92DF92EF92FF920F931F932D
:10014000CF93DF936C017A018B01C0E0D0E0CE1534
:10015000DF0589F0D8016D918D01D601ED91FC91FB
:100160000190F081E02DC6010995892B11F47E01E3
:1001700002C02196ECCFC701DF91CF911F910F9163
:10018000FF90EF90DF90CF900895089580E090E089
:100190000895FC01538D448D252F30E0842F90E08D
:1001A000821B930B541710F0CF9608950197089572
:1001B000FC01918D828D981761F0828DDF01A80F6F
:1001C000B11D5D968C91928D9F5F9F73928F90E091
:1001D00008958FEF9FEF0895FC01918D828D981700
:1001E00031F0828DE80FF11D858D90E008958FEF3D
:1001F0009FEF0895FC01918D228D892F90E0805C06
:100200009F4F821B91098F73992708958DE891E084
:100210000E94FA0021E0892B09F420E0822F089542
:10022000FC01848DDF01A80FB11DA35ABF4F2C9193
:10023000848D90E001968F739927848FA689B78962
:100240002C93A089B1898C9180648C93938D848D3B
:10025000981306C00288F389E02D80818F7D80830A
:100260000895EF92FF920F931F93CF93DF93EC01CA
:1002700081E0888F9B8D8C8D981305C0E889F98962
:10028000808185FD24C0F62E0B8D10E00F5F1F4F7F
:100290000F731127E02E8C8DE8120CC00FB607FCEF
:1002A000FACFE889F989808185FFF5CFCE010E94D8
:1002B0001001F1CF8B8DFE01E80FF11DE35AFF4FC6
:1002C000F0820B8FEA89FB898081806207C0EE890A
:1002D000FF896083E889F98980818064808381E077
:1002E00090E0DF91CF911F910F91FF90EF900895D3
:1002F000CF93DF93EC01888D8823C9F0EA89FB89CD
:10030000808185FD05C0A889B9898C9186FD0FC0C3
:100310000FB607FCF5CF808185FFF2CFA889B98998
:100320008C9185FFEDCFCE010E941001E7CFDF91C8
:10033000CF91089580E090E0892B29F00E9406017A
:1003400081110C940000089590E0FC01EC55FF4FE2
:100350003491FC01E057FF4F2491FC01E458FF4F1A
:10036000E491EE2309F43BC0332339F1333091F0AB
:1003700038F43130A9F0323001F584B58F7D12C0E8
:10038000373091F03830A1F03430B9F480918000EA
:100390008F7D03C0809180008F77809380000DC097
:1003A00084B58F7784BD09C08091B0008F7703C07A
:1003B0008091B0008F7D8093B000F0E0EE0FFF1FC2
:1003C000EE58FF4FA591B4918FB7F894EC9161115D
:1003D00003C020952E2301C02E2B2C938FBF089590
:1003E000CF93DF9390E0FC01E057FF4F2491FC0195
:1003F000E458FF4F8491882361F190E0880F991FA2
:10040000FC01E859FF4FC591D491FC01EE58FF4F14
:10041000A591B491611109C09FB7F8948881209586
:1004200082238883EC912E230BC0623061F49FB746
:10043000F8943881822F809583238883EC912E2B2A
:100440002C939FBF06C08FB7F894E8812E2B28838A
:100450008FBFDF91CF9108951F93CF93DF93182F14
:10046000EB0161E00E94F001209711F460E004C00C
:10047000CF3FD10539F461E0812FDF91CF911F91FA
:100480000C94A401E12FF0E0EC55FF4FE491E33030
:10049000F9F048F4E130B9F0E230A1F584B58062BA
:1004A00084BDC8BD34C0E730E9F0E83019F1E4306C
:1004B00049F580918000806280938000D0938B000A
:1004C000C0938A0024C084B5806884BDC7BD1FC0A6
:1004D00080918000806880938000D0938900C093D1
:1004E000880015C08091B00080688093B000C093F0
:1004F000B3000DC08091B00080628093B000C093C3
:10050000B40005C0C038D1050CF0B5CFAFCFDF9136
:10051000CF911F9108952FB7F89460918501709144
:10052000860180918701909188012FBF08950F93D4
:100530001F930E948B0260939501709396018093A4
:10054000970190939801E0918D01F0918E010284C2
:10055000F385E02D8DE891E0099597FF1FC00E947B
:100560008B02009195011091960120919701309195
:100570009801DC01CB01801B910BA20BB30B009106
:100580009101109192012091930130919401801773
:100590009107A207B307B8F28FEF9FEF1F910F915A
:1005A00008950895FC01DB012D913C918281938196
:1005B0002817390751F041E045838217930714F05B
:1005C0008FEF01C081E0848301C01582DB018D9132
:1005D0009C91938382830895FC01DB0182819C912D
:1005E000981751F091E094839C91891710F08FEF48
:1005F00001C081E0838301C014828C9182830895BD
:10060000FC01DB012D913C918281938128173907F0
:1006100051F041E045838217930710F08FEF01C03E
:1006200081E0848301C01582DB018D919C919383CD
:10063000828308950F931F93CF93DF938C01EB0177
:100640000E94EC02D80115968D919C911697009707
:1006500061F0DC01ED91FC910190F081E02DBE0193
:10066000DF91CF911F910F910994DF91CF911F914D
:100670000F9108950F931F93CF93DF93FC01DB013C
:100680000D911D912D913C9182819381A481B58121
:10069000081719072A073B0761F041E047838017D5
:1006A0009107A207B30710F08FEF01C081E08683A6
:1006B00001C01782EB0188819981AA81BB81828365
:1006C0009383A483B583DF91CF911F910F910895F8
:1006D000FC01DB0182819C91981769F091E0948381
:1006E0002C9130E090E08217930714F08FEF01C057
:1006F00081E0838301C014828C91828308950F93DB
:100700001F93CF93DF938C01EB010E946803D80104
:1007100015968D919C911697009761F0DC01ED91F3
:10072000FC910190F081E02DBE01DF91CF911F91EE
:100730000F910994DF91CF911F910F910895CF925E
:10074000DF92EF92FF920F931F93CF93DF9300D02E
:1007500000D0CDB7DEB78C010E948B02F801C588AE
:10076000D688E788F08CDC01CB018C199D09AE0995
:10077000BF09C480D580E680F7809801245F3F4F91
:100780008C159D05AE05BF05B0F081E08983BE01E3
:100790006F5F7F4FC9010E947F030E948B026983B4
:1007A0007A838B839C83BE016F5F7F4FC801439622
:1007B0000E943A0307C01982BE016F5F7F4FC901D3
:1007C0000E947F030F900F900F900F90DF91CF91B9
:1007D0001F910F91FF90EF90DF90CF9008950895B3
:1007E000009769F0FC0101900020E9F73197AF0113
:1007F000481B590BBC018DE891E00C949A0080E0F5
:1008000090E008950E94980C0F931F93CF93DF936D
:10081000EC0188819981009729F02A813B81261774
:10082000370788F48B016F5F7F4F0E94CE0B0097D4
:1008300061F0998388831B830A832C813D81232B5C
:1008400011F4FC01108281E001C080E0DF91CF91C2
:100850001F910F9108950C94360B6F927F928F9297
:100860009F92AF92BF92CF92DF92EF92FF920F933F
:100870001F93CF93DF93CDB7DEB7EC970FB6F89405
:10088000DEBF0FBECDBFDC015496FC90549754964A
:100890001C92B1E0FB12C8C28C01FC01858115825B
:1008A0008F3F09F067C01982BE016F5F7F4FC8019B
:1008B00048960E947F03F982BE016F5F7F4FC80197
:1008C0004F960E947F03F982BE016F5F7F4FC80180
:1008D00086960E947F031982BE016F5F7F4FC80119
:1008E0008D960E941A031982BE016F5F7F4FC80167
:1008F000C4960E941A031982BE016F5F7F4FC80120
:100900008F5B9F4F0E946803E0919D01F0919E01D3
:1009100082E08083E0919901F0919A011082E09148
:100920009B01F0919C018FEC80831092A501E091D6
:10093000A101F091A20186E08083E0919F01F091F6
:10094000A001808180618083E0919F01F091A001EE
:10095000808188608083E0919F01F091A001808177
:1009600080688083E0919F01F091A00180818F7D5C
:10097000808308C0F982BE016F5F7F4FC801029675
:100980000E9468038DE891E00E94FA00892B09F427
:1009900099C118AE1FAA1AAE19AE1CAE1BAE60E00C
:1009A00070E0CE01C7960E9404042FA938AD8111D2
:1009B0000DC02115310519F0C9010E94360B18AE82
:1009C0001FAA1CAE1BAE1AAE19AE26C01CAE1BAEC3
:1009D00067E771E0C9010E94B70C1EC08A3091051B
:1009E000F9F089831A82EBACFCACFFEFEF1AFF0A37
:1009F000B701CE01C7960E940404882369F02FA98D
:100A000038AD8BAD9CADBE016F5F7F4F820F931FE2
:100A10000E94B70CFCAEEBAE0E94970297FFDECFB0
:100A20008BAD9CAD892B09F449C16FA978AD8AE0E3
:100A300091E09A8389831C821B821E821D82188604
:100A40001F827E0129E0E20EF11C84E1D7011D9294
:100A50008A95E9F743E150E0C7010E94BE0CFE0110
:100A6000B7968AE0DF011D928A95E9F76E01B1E33E
:100A7000CB0ED11C86E0D6011D928A95E9F7C701FD
:100A80005F01AE014E5E5F4F7C01DC012C9101964F
:100A9000322F3F7D49F07C01219384179507A1F700
:100AA00088EC90E09C838B838B819C81892B09F05F
:100AB00051C03E01BDE16B0E711C4301D5018D910A
:100AC0005D01882349F0082E000C990B0E949D0CB3
:100AD000F30181933F01F2CFF30110826CE571E0E5
:100AE000C4010E94CD0C892B19F01E821D8232C0D8
:100AF00061E671E0C4010E94AE0C892B19F481E01B
:100B000090E01DC068E671E0C4010E94AE0C892B24
:100B100019F482E090E013C067E671E0C4010E941E
:100B2000AE0C892B19F483E090E009C06BE671E00C
:100B3000C4010E94CD0C892B29F084E090E09E83B3
:100B40008D8308C08FEF9FEF9E838D838CE291E0B1
:100B50009C838B838B819C81892B91F4F701319647
:100B6000D6019E012A5C3F4F8191982F9F7D41F0D5
:100B70008D93A217B307C1F789EC90E09C838B8318
:100B80008B819C81892B09F0AFC0C6010E94090AA4
:100B9000F82E8F8398872D813E8122303105D1F147
:100BA000E4F42115310511F12130310509F081C03E
:100BB000EE24E394ED8EBE01635E7F4FC8014F9635
:100BC0000E947F03ED8EBE01635E7F4FC801869653
:100BD0000E947F038FEF8D8F2FC023303105A9F145
:100BE0002430310509F065C01D8E52C0FF24F394F6
:100BF000FD8EBE01635E7F4FC8014F960E947F034A
:100C0000FD8EBE01635E7F4FC80186960E947F0302
:100C10001D8E2DC01D8EBE01635E7F4FC8014F9695
:100C20000E947F0381E08D8FBE01635E7F4FC8010C
:100C300086960E947F031D8EBE01635E7F4FC801B2
:100C40008D960E941A03FD8E1AC081E08D8FBE0121
:100C5000635E7F4FC8014F960E947F031D8EBE01C9
:100C6000635E7F4FC80186960E947F03FD8EBE01A2
:100C7000635E7F4FC8018D960E941A031D8EBE01D0
:100C8000635E7F4FC801C4960E941A0381E08D8F76
:100C9000BE01635E7F4FC8018F5B9F4F0E94680358
:100CA00082E791E00E94F00385E791E00E94F00363
:100CB00005C08FA998AD0E94360BB6C08FA998AD1C
:100CC0000E94360BD8011E962C911E971E961C92E0
:100CD000C8014896222309F470C0F801ED5BFF4F6C
:100CE000208121116AC016C088E791E00E94F003BC
:100CF0004AE0BE01635E7F4F8B819C810E94270A80
:100D00000E94F00385E791E00E94F003F12C2FEFA1
:100D10003FEF43CFF801238534852F5F3F4F369552
:100D200027953A952115FFEF3F0711F421E03FEF9A
:100D30002F3F310519F014F02FEF30E0F80136AFF6
:100D400025AFFF24F394F982BE016F5F7F4F0E94AD
:100D50007F03D801DD968D919C91DE97AC01415FB8
:100D60005F4F9801215E3F4FF801B6966F01B801C1
:100D7000635D7F4F5B01D4964D014F31510520F5E6
:100D8000F982BE016F5F7F4FC9010E947F03F98224
:100D9000BE016F5F7F4FC6010E947F031982BE01B3
:100DA0006F5F7F4FC5010E941A031982BE016F5FFA
:100DB0007F4FC4010E941A0337C01982BE016F5FC2
:100DC0007F4F0E947F0330C018161906CCF4198299
:100DD000BE016F5F7F4FC9010E947F03F982BE0190
:100DE0006F5F7F4FC6010E947F031982BE016F5F54
:100DF0007F4FC5010E941A03F80185AD8983D6CFC4
:100E0000F982BE016F5F7F4FC9010E947F03198283
:100E1000BE016F5F7F4FC6010E947F03D801DD9640
:100E20008C9181958983BBCFEC960FB6F894DEBF89
:100E30000FBECDBFDF91CF911F910F91FF90EF902B
:100E4000DF90CF90BF90AF909F908F907F906F90EA
:100E500008951F920F920FB60F9211242F933F9374
:100E60004F935F936F937F938F939F93AF93BF93B2
:100E7000EF93FF938DE891E00E941001FF91EF91B5
:100E8000BF91AF919F918F917F916F915F914F91A2
:100E90003F912F910F900FBE0F901F9018951F92AA
:100EA0000F920FB60F9211242F938F939F93EF936E
:100EB000FF93E0919D01F0919E018081E091A3015B
:100EC000F091A40182FD12C090818091A6018F5FF4
:100ED0008F732091A701821751F0E091A601F0E0F5
:100EE000E357FE4F958F8093A60101C08081FF914B
:100EF000EF919F918F912F910F900FBE0F901F90A8
:100F000018951F920F920FB60F9211242F933F93B3
:100F10008F939F93AF93BF938091850190918601AA
:100F2000A0918701B09188013091840123E0230FC3
:100F30002D3720F40196A11DB11D05C026E8230F11
:100F40000296A11DB11D2093840180938501909389
:100F50008601A0938701B0938801809180019091D0
:100F60008101A0918201B09183010196A11DB11D63
:100F70008093800190938101A0938201B0938301BB
:100F8000BF91AF919F918F913F912F910F900FBE85
:100F90000F901F901895BF92CF92DF92EF92FF9221
:100FA0000F931F93CF93DF9300D000D0CDB7DEB760
:100FB000EDE8F1E01382128288EE93E0A0E0B0E069
:100FC00084839583A683B78382E191E091838083B4
:100FD00085EC90E09587848784EC90E097878687FE
:100FE00080EC90E0918B808B81EC90E0938B828BF6
:100FF00082EC90E0958B848B86EC90E0978B868BCF
:10100000118E128E138E148E8BE8E82E82E0F82E4D
:10101000F70113821282158214821782168205E468
:1010200012E08AE591E0F8019183808314821582B1
:1010300016828CE391E09383828310861782148654
:1010400013861586168626E331E032872187108ABB
:101050001786138A148A158A928B818B178A168AAF
:10106000128E138E148E92E4C92E91E0D92ED18E59
:10107000C08E11A212A213A2D0A2C78E10A611A6D2
:1010800012A6D7A2C6A217A610AA11AA88E491E0B8
:1010900096A785A716AA17AA10AE95AB84AB109297
:1010A00083021092820210928402109285028EE4D2
:1010B00091E094AF83AF109288021092890210924F
:1010C0008A0284E591E090938702809386021982D8
:1010D000BE016F5F7F4F86E592E00E946803198230
:1010E000BE016F5F7F4F8DE592E00E947F03BB24BE
:1010F000B394B982BE016F5F7F4F84E692E00E9495
:101100007F03B982BE016F5F7F4F8BE692E00E9442
:101110007F031982BE016F5F7F4F82E792E00E94DA
:101120001A031982BE016F5F7F4F89E792E00E9428
:101130001A031982BE016F5F7F4F86E892E00E941A
:101140006803B982BE016F5F7F4F87E492E00E941F
:101150006803F701828193819C012F5F3F4F3383A6
:101160002283880F991FFC01E157FD4F11830083F3
:10117000EAE2F2E080E391E09183808314821582B9
:10118000168217821086118684E291E0938382830F
:101190001386128616861786108AD586C486158A07
:1011A000168A178A108E118E128E8AE291E0948B25
:1011B000838B81E090E0A0E0B0E089839A83AB83E9
:1011C000BC83BE016F5F7F4F8CE292E00E943A03C6
:1011D0001982BE016F5F7F4F86E392E00E947F031A
:1011E0000F900F900F900F90DF91CF911F910F9163
:1011F000FF90EF90DF90CF90BF900895CF93DF9353
:10120000CDB7DEB72A970FB6F894DEBF0FBECDBFBD
:10121000789484B5826084BD84B5816084BD85B5D1
:10122000826085BD85B5816085BD80916E008160DD
:1012300080936E0010928100809181008260809383
:101240008100809181008160809381008091800085
:101250008160809380008091B10084608093B100B0
:101260008091B00081608093B00080917A008460AA
:1012700080937A0080917A00826080937A008091D6
:101280007A00816080937A0080917A0080688093F0
:101290007A001092C10080918D0290918E029C0183
:1012A0002F5F3F4F30938E0220938D02880F991F3E
:1012B000FC01E157FD4F8AE292E09183808360E078
:1012C0008EE00E94F00161E08DE00E94F00161E09B
:1012D00083E00E94F00161E085E00E94F00161E09E
:1012E00082E10E94F00161E083E10E94F0018AE066
:1012F00090E0A0E0B0E089839A83AB83BC83BE0119
:101300006F5F7F4F8CE292E00E943A030E94870059
:101310009A838983BE016F5F7F4F8EE492E00E94C3
:1013200000031982BE016F5F7F4F87E492E00E9445
:10133000680318E00E9487009A878987BE01675F6B
:101340007F4F8EE492E00E940003809138028987EB
:10135000BE01675F7F4F86E592E00E946803EBE87D
:10136000F2E0DE011196812F01900D928A95E1F74E
:1013700089819A812B813C8182179307C8F49C0153
:101380002F5F3F4F3A832983FC013296EE0FFF1FF8
:1013900081E090E08C0F9D1FE80FF91F8081918103
:1013A000DC01ED91FC910190F081E02D0995E0CFF9
:1013B0008091890190918A01A0918B01B0918C015B
:1013C0000196A11DB11D8093890190938A01A0937C
:1013D0008B01B0938C0160915F028DE00E94A401AB
:1013E0006091660282E10E94A40160916D0283E136
:1013F0000E94A4016091740270E083E00E942C02BC
:1014000060917B0270E085E00E942C020E949A01AC
:1014100091CFFC0188279927E89421912032E9F3A4
:10142000293010F02E30C8F32B3241F02D3239F430
:10143000689404C00E94320A820F911D21912053AA
:101440002A30C0F31EF4909581959F4F0895BB27D5
:101450004A3031F4992322F4BDE2909581959F4F53
:101460000C943B0A7AE0979F902D879F802D910DD9
:1014700011240895BB27FB015527AA27880F991F20
:10148000AA1FA41710F0A41B83955051B9F7A05DB3
:10149000AA3308F0A95DA193009779F7B111B19330
:1014A0001192CB010C94540ADC01FC01672F71915D
:1014B0007723E1F7329704C07C916D93708362913A
:1014C000AE17BF07C8F308952F923F924F925F92D5
:1014D0006F927F928F929F92AF92BF92CF92DF9244
:1014E000EF92FF920F931F93CF93DF93CDB7DEB7A9
:1014F000CA1BDB0B0FB6F894DEBF0FBECDBF09943D
:101500002A88398848885F846E847D848C849B8493
:10151000AA84B984C884DF80EE80FD800C811B81A1
:10152000AA81B981CE0FD11D0FB6F894DEBF0FBED0
:10153000CDBFED010895EE0FFF1F0590F491E02D52
:101540000994CF93DF938230910510F482E090E00C
:10155000E0919502F091960220E030E0C0E0D0E00A
:10156000309711F14081518148175907C0F0481751
:10157000590761F482819381209719F09B838A83B4
:101580002BC0909396028093950226C021153105B9
:1015900019F04217530718F49A01BE01DF01EF0159
:1015A0000280F381E02DDCCF2115310509F1281BE4
:1015B000390B2430310590F412968D919C9113973C
:1015C0006115710521F0FB019383828304C0909320
:1015D000960280939502FD01329644C0FD01E20F10
:1015E000F31F81939193225031092D933C933AC07C
:1015F0002091930230919402232B41F42091020117
:1016000030910301309394022093930220910001C2
:10161000309101012115310541F42DB73EB74091BC
:10162000040150910501241B350BE0919302F091C8
:101630009402E217F307A0F42E1B3F0B281739077B
:1016400078F0AC014E5F5F4F2417350748F04E0F1E
:101650005F1F50939402409393028193919302C031
:10166000E0E0F0E0CF01DF91CF9108950F931F9359
:10167000CF93DF93009709F48CC0FC01329713825B
:10168000128200919502109196020115110581F4C4
:1016900020813181820F931F209193023091940217
:1016A0002817390779F5F0939402E093930271C0FB
:1016B000D80140E050E0AE17BF0750F412962D91CC
:1016C0003C911397AD012115310509F1D901F3CFF3
:1016D0009D01DA013383228360817181860F971F18
:1016E0008217930769F4EC0128813981260F371F8F
:1016F0002E5F3F4F318320838A819B819383828336
:10170000452B29F4F0939602E093950242C013967C
:10171000FC93EE931297ED01499159919E01240F8C
:10172000351FE217F30771F480819181840F951FB3
:10173000029611969C938E938281938113969C932B
:101740008E931297E0E0F0E0D80112968D919C9173
:101750001397009719F0F8018C01F6CF8D919C91A9
:1017600098012E5F3F4F820F931F2091930230917B
:1017700094022817390769F4309729F410929602D9
:101780001092950202C01382128210939402009369
:101790009302DF91CF911F910F910895A0E0B0E0E7
:1017A000E4EDFBE00C94680AEC01009721F4CB0116
:1017B0000E94A10AB8C0FC01E60FF71F9C0122504D
:1017C0003109E217F30708F4ACC0D9010D911C915F
:1017D000119706171707B0F00530110508F49FC0E0
:1017E000C80104978617970708F499C00250110999
:1017F000061B170B019311936D937C93CF010E94ED
:10180000360B8DC05B01A01AB10A4C01800E911EEF
:10181000A0919502B091960240E050E0E12CF12CAD
:10182000109709F44AC0A815B905D1F56D907C90C0
:101830001197630182E0C80ED11CCA14DB0480F149
:10184000A3014A195B096A0182E0C80ED11C1296F5
:10185000BC9012971396AC91B5E0CB16D10440F032
:10186000B282A38351834083D9016D937C930AC0D4
:101870000E5F1F4FC301800F911FF9019183808379
:10188000EB2DFA2FE114F10431F0D7011396FC93FC
:10189000EE93129744C0F0939602E09395023FC0F6
:1018A0008D919C9111974817590708F4AC017D015F
:1018B00012960D90BC91A02DB3CF80919302909180
:1018C000940288159905E1F446175707C8F48091EA
:1018D000000190910101009741F48DB79EB74091AE
:1018E000040150910501841B950BE817F907C8F412
:1018F000F0939402E0939302F901718360830FC027
:10190000CB010E94A10A7C01009759F0A801BE01F9
:101910000E94A50CCE010E94360BC70104C0CE0167
:1019200002C080E090E0CDB7DEB7EEE00C94840A10
:1019300081E090E0F8940C94E70C911108958156A1
:101940008A5108F4805285580895FB01DC0102C0D9
:1019500001900D9241505040D8F70895FB01DC01F1
:101960008D91019080190110D9F3990B0895FB0115
:10197000DC0101900D920020E1F70895FB01DC01EC
:101980004150504048F001900D920020C9F701C02D
:101990001D9241505040E0F70895FB0151915523AD
:1019A000A9F0BF01DC014D9145174111E1F759F450
:1019B000CD010190002049F04D9140154111C9F32E
:1019C000FB014111EFCF81E090E001970895F89479
:0219D000FFCF47
:1019D20000009702800000000000D1022B040000EA
:1019E200000031019A00C9007801FA00D800EC0029
:1019F200000000003A03000000003A03000000006B
:101A02009F030000000000030000000068030000C4
:101A120000007F03000000001A0300000000D20251
:101A2200000000006803000000002D0453544F50D2
:101A320000425245414B00434357004D414E5541F0
:101A42004C004F4B000D0A004552524F523A2000B3
:107800000C94343C0C94513C0C94513C0C94513CE1
:107810000C94513C0C94513C0C94513C0C94513CB4
:107820000C94513C0C94513C0C94513C0C94513CA4
:107830000C94513C0C94513C0C94513C0C94513C94
:107840000C94513C0C94513C0C94513C0C94513C84
:107850000C94513C0C94513C0C94513C0C94513C74
:107860000C94513C0C94513C11241FBECFEFD8E036
:10787000DEBFCDBF11E0A0E0B1E0ECE9FFE702C060
:1078800005900D92A230B107D9F712E0A2E0B1E065
:1078900001C01D92AD30B107E1F70E942D3D0C945F
:1078A000CC3F0C94003C982F959595959595959582
:1078B000905D8F708A307CF0282F295A8091C0000B
:1078C00085FFFCCF9093C6008091C00085FFFCCF60
:1078D0002093C6000895282F205DF0CF982F809127
:1078E000C00085FFFCCF9093C6000895EF92FF92F1
:1078F0000F931F93EE24FF2487018091C00087FD22
:1079000017C00894E11CF11C011D111D81E4E8164B
:1079100082E4F8068FE0080780E0180770F3E09132
:107920000401F091050109958091C00087FFE9CF1E
:107930008091C6001F910F91FF90EF9008950E94D3
:10794000763C982F8091C00085FFFCCF9093C600B5
:1079500091362CF490330CF09053892F089597555D
:10796000892F08951F930E949F3C182F0E949F3CCF
:107970001295107F810F1F9108951F93182F882350
:1079800021F00E94763C1150E1F71F9108951F935A
:10799000182F0E94763C803249F0809103018F5F5E
:1079A000809303018530C1F01F9108958091C0003C
:1079B00085FFFCCF84E18093C6008091C00085FFE5
:1079C000FCCF1093C6008091C00085FFFCCF80E102
:1079D0008093C6001F910895E0910401F091050184
:1079E00009951F9108950E94763C803241F0809164
:1079F00003018F5F80930301853081F008958091AA
:107A0000C00085FFFCCF84E18093C6008091C00058
:107A100085FFFCCF80E18093C6000895E0910401CA
:107A2000F09105010995089540E951E08823A1F0FE
:107A30002D9A28EE33E0FA013197F1F721503040CA
:107A4000D1F72D9828EE33E0FA013197F1F7215064
:107A50003040D1F7815061F708953F924F925F9285
:107A60006F927F928F929F92AF92BF92CF92DF924E
:107A7000EF92FF920F931F93CF93DF93000080E16B
:107A80008093C4001092C50088E18093C10086E015
:107A90008093C2005098589A259A81E00E94143D24
:107AA00024E1F22E9EE1E92E85E9D82E0FE0C02ECA
:107AB00010E1B12EAA24A394B1E49B2EA6E58A2E50
:107AC000F2E57F2EE0E26E2E79E4572E63E5462E36
:107AD00050E5352E0E94763C8033B1F18133B9F107
:107AE000803409F46FC0813409F476C0823409F41B
:107AF00085C0853409F488C0803531F1823521F1A3
:107B0000813511F1853509F485C0863509F48DC0BC
:107B1000843609F496C0843709F403C1853709F423
:107B200072C1863709F466C0809103018F5F80932C
:107B30000301853079F6E0910401F0910501099582
:107B40000E94763C803351F60E94F33CC3CF0E94E2
:107B5000763C803249F78091C00085FFFCCFF092DF
:107B6000C6008091C00085FFFCCF9092C600809136
:107B7000C00085FFFCCF8092C6008091C00085FFC9
:107B8000FCCF7092C6008091C00085FFFCCF609250
:107B9000C6008091C00085FFFCCF5092C600809146
:107BA000C00085FFFCCF4092C6008091C00085FFD9
:107BB000FCCF3092C6008091C00085FFFCCFB09210
:107BC000C60088CF0E94763C863808F4BDCF0E945C
:107BD000763C0E94F33C7ECF0E94763C803809F4CC
:107BE0009CC0813809F40BC1823809F43CC1883942
:107BF00009F48FC080E00E94C73C6CCF84E10E94F2
:107C0000BD3C0E94F33C66CF85E00E94BD3C0E94D3
:107C1000F33C60CF0E94763C809306010E94763C44
:107C2000809307010E94F33C55CF0E94763C80333D
:107C300009F41DC183E00E94BD3C80E00E94C73C66
:107C400049CF0E94763C809309020E94763C809343
:107C5000080280910C028E7F80930C020E94763C79
:107C6000853409F415C18091080290910902892B8D
:107C700089F000E010E00E94763CF801E85FFE4FDA
:107C800080830F5F1F4F80910802909109020817AF
:107C9000190788F30E94763C803209F045CF809125
:107CA0000C0280FF01C16091060170910701660F0F
:107CB000771F7093070160930601A0910802B091AD
:107CC00009021097C9F0E8E0F1E09B01AD014E0F09
:107CD0005F1FF999FECF32BD21BD819180BDFA9A17
:107CE000F99A2F5F3F4FE417F50799F76A0F7B1F4B
:107CF00070930701609306018091C00085FFFCCF5F
:107D0000F092C6008091C00085FFFCCFB092C60003
:107D1000E1CE83E00E94C73CDDCE82E00E94C73CFA
:107D2000D9CE0E94763C809309020E94763C8093D3
:107D300008028091060190910701880F991F909386
:107D40000701809306010E94763C853409F4A6C0A1
:107D500080910C028E7F80930C020E94763C8032D0
:107D600009F0B8CE8091C00085FFFCCFF092C6002C
:107D7000609108027091090261157105B9F140E046
:107D800050E080910C02A82FA170B82FB27011C0E2
:107D9000BB2309F45CC0E0910601F0910701319624
:107DA000F0930701E09306014F5F5F4F46175707B7
:107DB000E8F4AA2369F3F999FECF209106013091E6
:107DC000070132BD21BDF89A90B58091C00085FFB2
:107DD000FCCF9093C6002F5F3F4F30930701209355
:107DE00006014F5F5F4F4617570718F38091C00099
:107DF00085FDE5CE8091C00085FFF8CFE0CE81E023
:107E00000E94C73C67CE0E94763C803209F08CCE3F
:107E10008091C00085FFFCCFF092C6008091C00029
:107E200085FFFCCFE092C6008091C00085FFFCCFAB
:107E3000D092C6008091C00085FFFCCFC092C600E2
:107E40008091C00085FFFCCFB092C60043CEE09188
:107E50000601F091070194918091C00085FFFCCF4D
:107E60009093C6009CCF80E10E94C73C33CE0E9415
:107E7000763C0E94763C182F0E94763C112309F430
:107E800083C0113009F484C08FE00E94C73C22CE29
:107E900080910C02816080930C02E5CE80910C02EF
:107EA000816080930C0259CF809107018823880F4D
:107EB000880B8A2180930B02809106019091070123
:107EC000880F991F90930701809306018091080203
:107ED00080FF09C080910802909109020196909359
:107EE000090280930802F894F999FECF1127E091D6
:107EF0000601F0910701C8E0D1E08091080290915D
:107F00000902103091F40091570001700130D9F34B
:107F100003E000935700E89500915700017001308D
:107F2000D9F301E100935700E89509901990009169
:107F3000570001700130D9F301E000935700E89534
:107F40001395103498F011270091570001700130FB
:107F5000D9F305E000935700E895009157000170B0
:107F60000130D9F301E100935700E895329602976A
:107F700009F0C7CF103011F00296E5CF112480919F
:107F8000C00085FFB9CEBCCE8EE10E94C73CA2CD19
:0C7F900085E90E94C73C9ECDF894FFCF0D
:027F9C00800063
:040000030000780081
:00000001FF