:100000000C945E000C9486000C9486000C94860080
:100010000C9486000C9486000C9486000C94860048
:100020000C9486000C9486000C9486000C94860038
:100030000C9486000C9486000C9486000C94860028
:100040000C9429070C9486000C94130A0C94450A0E
:100050000C9486000C9486000C9486000C94860008
:100060000C9486000C948600000000080002010039
:100070000003040700000000000000000102040863
:100080001020408001020408102001020408102002
:10009000040404040404040402020202020203032E
:1000A0000303030300000000250028002B000000CC
:1000B0000000240027002A006903750A11241FBECE
:1000C000CFEFD8E0DEBFCDBF11E0A0E0B1E0E0E6C9
:1000D000FEE102C005900D92AE38B107D9F722E0DB
:1000E000AEE8B1E001C01D92A53AB207E1F710E019
:1000F000CCEBD0E004C02297FE010E945D0CC83B0F
:10010000D107C9F70E94B90A0C942E0F0C94000075
:10011000FC01DB0182819C91981769F091E0948346
:100120002C9130E090E08217930714F481E001C035
:100130008FEF838301C014828C91828308950F9383
:100140001F93CF93DF93EC018B010E9488008D8178
:100150009E81009761F0DC01ED91FC910190F081AE
:10016000E02DB801DF91CF911F910F910994DF919C
:10017000CF911F910F9108950F931F93FC01DB0105
:100180000D911D912D913C91139742815381648172
:100190007581041715072607370751F081E087831B
:1001A000401751076207730708F08FEF868301C07D
:1001B00017824D915D916D917C914283538364834D
:1001C00075831F910F910895FC01DB012D913C91E6
:1001D000828193812817390751F041E045838217C6
:1001E000930710F481E001C08FEF848301C0158272
:1001F000DB018D919C91938382830895FC01DB0147
:1002000082819C91981751F091E094839C91891779
:1002100010F481E001C08FEF838301C014828C91C0
:10022000828308950F931F93CF93DF93EC018B018B
:100230000E94FE008D819E81009761F0DC01ED91AE
:10024000FC910190F081E02DB801DF91CF911F91D9
:100250000F910994DF91CF911F910F910895FC01A7
:10026000DB012D913C91828193812817390751F050
:1002700041E045838217930714F481E001C08FEFBA
:10028000848301C01582DB018D919C9193838283CD
:100290000895CF92DF92EF92FF920F931F93CF9327
:1002A000DF9300D000D0CDB7DEB78C010E9473077A
:1002B000D8015596CD90DD90ED90FC9058976C1933
:1002C0007D098E099F091496CD90DD90ED90FC90EC
:1002D00017979801245F3F4F6C157D058E059F058C
:1002E000E8F081E08983BE016F5F7F4FC9010E9402
:1002F0009F00D8015396ED91FC915497E080F180D6
:100300000E94730769837A838B839C83BE016F5F2E
:100310007F4FC8014396F701099507C01982BE01B6
:100320006F5F7F4FC9010E949F000F900F900F9049
:100330000F90DF91CF911F910F91FF90EF90DF9081
:10034000CF900895BF92CF92DF92EF92FF920F93DA
:100350001F93CF93DF931F92CDB7DEB78C0184E458
:1003600091E0D8018D939D936D01F801148215825F
:1003700016828EE091E09383828310861782148622
:100380001386158616862CE231E032872187108A83
:100390001786138A148A158A928B818B178A168A7C
:1003A000128E138E148E84E191E0918F808F11A2B2
:1003B00012A213A290A3878F10A611A612A697A32C
:1003C00086A317A610AA11AA82E391E096A785A793
:1003D00016AA17AA10AE95AB84AB16AE15AE17AE23
:1003E000E05CFF4F108288E391E0D801DC969C939B
:1003F0008E93DB977801B1E4EB0EF11CF7011282CA
:10040000138214828EE391E0918380831982BE016E
:100410006F5F7F4FC80141960E9488001982BE011C
:100420006F5F7F4FC80148960E949F00BB24B39422
:10043000B982BE016F5F7F4FC8014F960E949F0037
:10044000B982BE016F5F7F4FC80186960E949F00F0
:100450001982BE016F5F7F4FC8018D960E94120105
:100460001982BE016F5F7F4FC801C4960E941201BE
:10047000D701ED91FC910190F081E02D1982BE0130
:100480006F5F7F4FC7010995D8011296ED91FC91DE
:1004900013970190F081E02DB982BE016F5F7F4F0D
:1004A000C6010995A1EFB1E0ED91FC911197CF0143
:1004B00001968D939C93EE0FFF1FED50FE4F11831D
:1004C00000830F90DF91CF911F910F91FF90EF90DC
:1004D000DF90CF90BF9008950F931F93CF93DF933A
:1004E00000D000D0CDB7DEB7A1EFB1E0ED91FC9127
:1004F0001197CF0101968D939C93EE0FFF1FED5046
:10050000FE4F8EE891E09183808360E08EE00E9450
:100510005F0861E08DE00E945F0861E083E00E9477
:100520005F0861E085E00E945F0861E082E10E946F
:100530005F0861E083E10E945F08E0919001F09123
:1005400091010190F081E02D8AE090E0A0E0B0E020
:1005500089839A83AB83BC83BE016F5F7F4F80E941
:1005600091E00995E091B201F091B3010081118110
:100570008EE00E94BA079A838983BE016F5F7F4F26
:1005800082EB91E0F8010995E091AB01F091AC01AB
:100590000190F081E02D1982BE016F5F7F4F8BEAE1
:1005A00091E009950F900F900F900F90DF91CF91F0
:1005B0001F910F9108950F931F93CF93DF93CDB7A2
:1005C000DEB728970FB6F894DEBF0FBECDBFE0911F
:1005D000B201F091B301008111818EE00E94BA074F
:1005E0009A838983BE016F5F7F4F82EB91E0F801B0
:1005F0000995E091BA01F091BB010190F081E02DE5
:1006000080919C018983BE016F5F7F4F8AEB91E0EF
:10061000099588E0EFEEF1E0DE01119601900D9270
:100620008A95E1F7E981FA818B819C81E817F907C6
:10063000B8F4CF0101969A8389833296EE0FFF1F9B
:1006400081E090E08C0F9D1FE80FF91F8081918160
:10065000DC01ED91FC910190F081E02D0995E2CF54
:100660008091F7019091F801A091F901B091FA0100
:100670000196A11DB11D8093F7019093F801A093FD
:10068000F901B093FA016091C3018DE00E949808CE
:100690006091CA0182E10E9498086091D10183E1D2
:1006A0000E9498086091D80170E083E00E94D7070B
:1006B0006091DF0170E085E00E94D70728960FB6B1
:1006C000F894DEBF0FBECDBFDF91CF911F910F9188
:1006D0000895CF93DF9300D000D0CDB7DEB710924E
:1006E000F2011092F1011092F4011092F3011092B4
:1006F000F6011092F50189EA91E00E94A20186E2DA
:1007000091E090938F0180938E011092920110924C
:1007100093011092940110929501109296011092FB
:1007200097018AE191E0909391018093900110925A
:1007300099011092980110929C0110929D011092C3
:100740009E0184E191E090939B0180939A01109225
:10075000A3011092A4011092A5011092A60110927B
:10076000A7011092A80180E291E09093A2018093EA
:10077000A10181E090E0A0E0B0E089839A83AB839F
:10078000BC83BE016F5F7F4F80E991E00E94BC0097
:100790001982BE016F5F7F4F8AE991E00E949F003E
:1007A0000F900F900F900F90DF91CF9108959F922F
:1007B000AF92BF92CF92DF92EF92FF920F931F936F
:1007C000CF93DF93CDB7DEB7A7970FB6F894DEBF10
:1007D0000FBECDBF8C01DC0115968C911597159637
:1007E0001C928F3F09F042C01982BE016F5F7F4F9C
:1007F000C80148960E949F00FF24F394F982BE012D
:100800006F5F7F4FC8014F960E949F00F982BE0123
:100810006F5F7F4FC80186960E949F001982BE01BC
:100820006F5F7F4FC8018D960E9412011982BE0131
:100830006F5F7F4FC801C4960E941201C8018F5B91
:100840009F4FDC01ED91FC910190F081E02D198228
:10085000BE016F5F7F4F099526E040E855E260E0FA
:1008600070E084E092E00E94B10910C0D8011296B5
:10087000ED91FC9113970190F081E02D81E0898347
:10088000BE016F5F7F4FC8010296099584E092E038
:100890000E94CE08892B09F4D5C04AE064E072E0DA
:1008A000CE014D960E944E0B89A19AA1892B09F485
:1008B000C5C06D8D7E8DCE0101960E94E205AE0110
:1008C0004D5D5F4FBE016B5D7F4FCE0101960E9473
:1008D0007B068DA19EA18230910509F445C0D4F418
:1008E000009771F1019709F0A0C0FF24F394FFA2D3
:1008F000BE01695D7F4FC8014F960E949F00FFA215
:10090000BE01695D7F4FC80186960E949F008FEFF0
:100910008FA33CC08330910509F449C0049709F0C6
:1009200084C0C8018F5B9F4FDC01ED91FC91019069
:10093000F081E02D1FA2BE01695D7F4F099553C074
:10094000FF24F394FFA2BE01695D7F4FC8014F965B
:100950000E949F00FFA2BE01695D7F4FC80186967D
:100960000E949F001FA236C01FA2BE01695D7F4F7B
:10097000C8014F960E949F0081E08FA3BE01695D70
:100980007F4FC80186960E949F001FA2BE01695D2D
:100990007F4FC8018D960E9412018BA18FA3BE01CB
:1009A000695D7F4FC801C4960E9412011CC081E09E
:1009B0008FA3BE01695D7F4FC8014F960E949F00C3
:1009C0001FA2BE01695D7F4FC80186960E949F00ED
:1009D0008BA18FA3BE01695D7F4FC8018D960E94D8
:1009E00012011FA2DCCF8DA19EA18F3FBFEF9B07FD
:1009F000B9F0049779F0C8018F5B9F4FDC01ED914E
:100A0000FC910190F081E02D21E02FA3BE01695DF2
:100A10007F4F099567E071E084E092E00E940E0B41
:100A2000CE0101960E94D50509C0CE0101960E9413
:100A3000D505CE014D960E94760B9DC0CE014D96F8
:100A40000E94760BF80126851686C8014896222357
:100A500029F0ED5BFF4F2081222339F01982BE017E
:100A60006F5F7F4F0E949F0086C0D8011B962D911B
:100A70003C911C972F5F3F4F369527953A9521154E
:100A8000BFEF3B0719F451E04FEF02C0522F432F45
:100A9000252F342F2F3F310519F014F02FEF30E0C0
:100AA000D801DE963C932E93DD97992493949982F6
:100AB000BE016F5F7F4F0E949F00F80125AD36ADEC
:100AC000A901415F5F4FC8014F96B8016A5D7F4F32
:100AD0007B01D8019D966D01F4965F014F31510560
:100AE000E0F49982BE016F5F7F4F0E949F00998260
:100AF000BE016F5F7F4FC7010E949F001982BE0138
:100B00006F5F7F4FC6010E9412011982BE016F5FA5
:100B10007F4FC5010E9412012EC012161306CCF49D
:100B20001982BE016F5F7F4F0E949F009982BE01B4
:100B30006F5F7F4FC7010E949F001982BE016F5FE8
:100B40007F4FC6010E941201D801DD968C918983E6
:100B5000DDCF9982BE016F5F7F4F0E949F00198297
:100B6000BE016F5F7F4FC7010E949F00F80185ADF6
:100B700081958983C4CFA7960FB6F894DEBF0FBEC8
:100B8000CDBFDF91CF911F910F91FF90EF90DF903C
:100B9000CF90BF90AF909F900895FC012489148A54
:100BA000213011F40C94D703089528E631E0FC01BC
:100BB00031832083089528E631E0FC0131832083CE
:100BC0000C94C80AFC0188E691E09183808313822B
:100BD00012821582148217821682CF01089624E1B0
:100BE000FC0111922A95E9F743E150E00C94910E33
:100BF000AF92BF92CF92DF92EF92FF920F931F932B
:100C0000CF93DF93CDB7DEB72A970FB6F894DEBF48
:100C10000FBECDBF8C016B01CE0101967C015C0142
:100C2000F60181916F01882349F0992787FD9095FE
:100C30000E94700EF70181937F01F2CFF7011082BD
:100C400066E471E0C5010E94A00E892B21F0F80135
:100C50001582148234C06BE471E0C5010E94810EDC
:100C6000892B19F481E090E01DC062E571E0C501B7
:100C70000E94810E892B19F482E090E013C061E597
:100C800071E0C5010E94810E892B19F483E090E088
:100C900009C065E571E0C5010E94A00E892B31F005
:100CA00084E090E0F8019583848309C08FEF9FEF83
:100CB000F801958384838CE291E0938382832A9662
:100CC0000FB6F894DEBF0FBECDBFDF91CF911F915D
:100CD0000F91FF90EF90DF90CF90BF90AF9008956D
:100CE000CF93DF93EC01CB010E94520E9F838E8342
:100CF000DF91CF9108958F929F92AF92BF92CF9242
:100D0000DF92EF92FF920F931F93CF93DF93CDB7B4
:100D1000DEB76A970FB6F894DEBF0FBECDBF8C0169
:100D20005B014A01BE01655F7F4F8AE0DB011D92D6
:100D30008A95E9F76E01B5E1CB0ED11C86E0F6018C
:100D400011928A95E9F7C8010896FB019E012C5E75
:100D50003F4F7C01DC014C910196542F5F7D61F087
:100D60007C014193E217F307A1F788EC90E0D801EA
:100D700013969C938E931297F80182819381892B0D
:100D800019F4C8010E94F805D80112968D919C9122
:100D90001397892B91F4D7011196F601CE014A964B
:100DA0002D91322F3F7D49F02193E817F907C1F7C4
:100DB00089EC90E0F80193838283D80112968D919B
:100DC0009C911397892B21F4B601C8010E947006EB
:100DD000F80182819381892B59F484819581D50111
:100DE0008D939C9386819781F401918380831EC0AB
:100DF0006CE571E084E092E00E94080B4AE0BE01DD
:100E00006F5F7F4FD80112968D919C9113970E942E
:100E1000BA0EBC0184E092E00E940E0B8FEF9FEFB0
:100E2000F50191838083D4011D921C926A960FB6BE
:100E3000F894DEBF0FBECDBFDF91CF911F910F9110
:100E4000FF90EF90DF90CF90BF90AF909F908F90EA
:100E500008951F920F920FB60F9211242F933F9374
:100E60008F939F93AF93BF938091FC019091FD016D
:100E7000A091FE01B091FF013091FB0123E0230F0F
:100E80002D3720F40196A11DB11D05C026E8230FC2
:100E90000296A11DB11D2093FB018093FC0190934C
:100EA000FD01A093FE01B093FF018091000290919B
:100EB0000102A0910202B09103020196A11DB11D91
:100EC0008093000290930102A0930202B093030268
:100ED000BF91AF919F918F913F912F910F900FBE36
:100EE0000F901F9018952FB7F8946091FC017091A6
:100EF000FD018091FE019091FF012FBF089578942C
:100F000084B5826084BD84B5816084BD85B582600E
:100F100085BD85B5816085BDEEE6F0E080818160AC
:100F20008083E1E8F0E010828081826080838081AC
:100F300081608083E0E8F0E0808181608083E1EB84
:100F4000F0E0808184608083E0EBF0E0808181606C
:100F50008083EAE7F0E08081846080838081826022
:100F6000808380818160808380818068808310920B
:100F7000C10008958E3008F08E50877020910601D0
:100F800090E4299F90011124822B80937C00809112
:100F90007A00806480937A0080917A0086FDFCCF8D
:100FA000809178002091790090E0922B08951F9312
:100FB000CF93DF93182FEB0161E00E945F08209729
:100FC00011F460E004C0CF3FD10539F461E0812F16
:100FD000DF91CF911F910C949808E12FF0E0E85930
:100FE000FF4FE491E330F9F048F4E130B9F0E2303A
:100FF000A1F584B5806284BDC8BD34C0E730E9F096
:10100000E83019F1E43049F58091800080628093E6
:101010008000D0938B00C0938A0024C084B5806880
:1010200084BDC7BD1FC08091800080688093800010
:10103000D0938900C093880015C08091B00080686B
:101040008093B000C093B3000DC08091B000806267
:101050008093B000C093B40005C0C038D1050CF037
:10106000B5CFAFCFDF91CF911F910895833081F03D
:1010700028F4813099F08230A1F008958730A9F0EA
:101080008830B9F08430D1F4809180008F7D03C026
:10109000809180008F7780938000089584B58F774A
:1010A00002C084B58F7D84BD08958091B0008F7794
:1010B00003C08091B0008F7D8093B0000895CF93DE
:1010C000DF9390E0FC01E458FF4F2491FC01E057CE
:1010D000FF4F8491882349F190E0880F991FFC010C
:1010E000E255FF4FA591B4918C559F4FFC01C591DE
:1010F000D4919FB7611108C0F8948C9120958223F8
:101100008C93888182230AC0623051F4F8948C91C8
:10111000322F309583238C938881822B888304C05F
:10112000F8948C91822B8C939FBFDF91CF9108957F
:101130000F931F93CF93DF931F92CDB7DEB7282F66
:1011400030E0F901E859FF4F8491F901E458FF4F6D
:101150001491F901E057FF4F04910023C9F088234F
:1011600021F069830E9436086981E02FF0E0EE0FDC
:10117000FF1FEC55FF4FA591B4919FB7F8948C9148
:10118000611103C01095812301C0812B8C939FBFF7
:101190000F90DF91CF911F910F910895FC01818DE8
:1011A000228D90E0805C9F4F821B91098F7399275D
:1011B0000895FC01918D828D981731F0828DE80F92
:1011C000F11D858D90E008958FEF9FEF0895FC014C
:1011D000918D828D981761F0828DDF01A80FB11D6E
:1011E0005D968C91928D9F5F9F73928F90E0089592
:1011F0008FEF9FEF08958BE69AE0892B49F080E00E
:1012000090E0892B29F00E946B0A81110C94000058
:101210000895FC01848DDF01A80FB11DA35ABF4FB3
:101220002C91848D90E001968F739927848FA689E5
:10123000B7892C93A089B1898C9180648C93938D0C
:10124000848D981306C00288F389E02D80818F7DFC
:1012500080830895CF93DF93EC01888D8823C9F0B4
:10126000EA89FB89808185FD05C0A889B9898C91AF
:1012700086FD0FC00FB607FCF5CF808185FFF2CF4A
:10128000A889B9898C9185FFEDCFCE010E9409090B
:10129000E7CFDF91CF910895CF92DF92FF920F9326
:1012A0001F93CF93DF931F92CDB7DEB76C0181E020
:1012B000D60158968C9358975B969C915B975C9659
:1012C0008C915C97981307C05096ED91FC915197C3
:1012D000808185FD2EC0F601038D10E00F5F1F4F4A
:1012E0000F731127F02EF601848DF81211C00FB67E
:1012F00007FCF9CFD6015096ED91FC915197808172
:1013000085FFF1CFC60169830E9409096981EBCF8E
:10131000838DE80FF11DE35AFF4F6083D6015B9682
:101320000C935B975296ED91FC915397808180626C
:101330000CC0D6015696ED91FC915797608350965C
:10134000ED91FC91519780818064808381E090E0F1
:101350000F90DF91CF911F910F91FF90DF90CF9071
:101360000895BF92CF92DF92EF92FF92CF93DF93D7
:10137000EC016A017B01B22EE889F98982E0808361
:10138000411581EE580761057105A1F060E079E033
:101390008DE390E0A70196010E94390C215031099C
:1013A000410951095695479537952795211580E1B3
:1013B000380798F0E889F989108260E874E88EE1CE
:1013C00090E0A70196010E94390C21503109410992
:1013D00051095695479537952795EC85FD853083BE
:1013E000EE85FF852083188EEC89FD89B082EA891D
:1013F000FB89808180618083EA89FB8980818860A4
:101400008083EA89FB89808180688083EA89FB89FF
:1014100080818F7D8083DF91CF91FF90EF90DF906F
:10142000CF90BF9008951F920F920FB60F92112484
:101430002F938F939F93EF93FF93E0911402F0917A
:1014400015028081E0911A02F0911B0282FD12C008
:10145000908180911D028F5F8F7320911E028217F1
:1014600051F0E0911D02F0E0EC5FFD4F958F80930D
:101470001D0201C08081FF91EF919F918F912F916B
:101480000F900FBE0F901F9018951F920F920FB6DE
:101490000F9211242F933F934F935F936F937F93FA
:1014A0008F939F93AF93BF93EF93FF9384E092E06A
:1014B0000E940909FF91EF91BF91AF919F918F9188
:1014C0007F916F915F914F913F912F910F900FBE40
:1014D0000F901F90189584E092E00E94CE0821E0C2
:1014E000892B09F420E0822F0895109207021092B0
:1014F000060288EE93E0A0E0B0E0809308029093AB
:101500000902A0930A02B0930B0280E791E0909346
:1015100005028093040285EC90E090931102809381
:10152000100284EC90E0909313028093120280ECFE
:1015300090E0909315028093140281EC90E09093D8
:1015400017028093160282EC90E090931902809328
:10155000180286EC90E090931B0280931A0210927E
:101560001D0210921E0210921F0210922002089576
:1015700008950E947F070E94B80A0E946C02CBEF78
:10158000D8E00E94DB022097E1F30E94FB08F9CF2C
:101590000C94F90CCF92DF92EF92FF920F931F936E
:1015A000CF93DF936C017A01EB01E60EF71E00E0AA
:1015B00010E0CE15DF0561F06991D601ED91FC9147
:1015C0000190F081E02DC6010995080F191FF1CF98
:1015D000C801DF91CF911F910F91FF90EF90DF90A5
:1015E000CF9008956115710581F0DB010D90002009
:1015F000E9F7AD0141505109461B570BDC01ED9154
:10160000FC910280F381E02D099480E090E0089540
:101610000C94F20A6CE771E00C94F20A0F931F939A
:10162000CF93DF93EC010E94F20A8C01CE010E945D
:101630000A0B800F911FDF91CF911F910F91089599
:101640000F931F93CF93DF93EC010E94730768877A
:1016500079878A879B87E881F9810680F781E02D69
:10166000CE01099597FF15C00E947307088519855B
:101670002A853B85601B710B820B930B0C811D81AE
:101680002E813F81601771078207930720F38FEF48
:101690009FEFDF91CF911F910F910895EF92FF92ED
:1016A0000F931F93CF93DF93EC018B01E42E6EE732
:1016B00071E00E94E40BC8010E94200BFF24E7FCAC
:1016C000F09497FD0BC08E159F0541F0682FCE0159
:1016D0000E94260CC8010E94200BF3CFCE01DF919F
:1016E000CF911F910F91FF90EF900895FC018081A1
:1016F00091810C94F90CCF93DF93EC01888199814F
:10170000009711F00E94F90C198218821D821C8228
:101710001B821A82DF91CF9108950F931F93CF936D
:10172000DF93EC018B016F5F7F4F888199810E946D
:10173000880D009731F0998388831B830A8381E0A9
:1017400001C080E0DF91CF911F910F910895CF9359
:10175000DF93EC0188819981892B29F08A819B8113
:101760008617970760F4CE010E948D0B882341F005
:101770008C819D81892B19F4E881F981108281E0A7
:10178000DF91CF910895EF92FF920F931F93CF9324
:10179000DF93EC017B018A01BA010E94A70B811142
:1017A00004C0CE010E947B0B07C01D830C83B701D0
:1017B000888199810E948A0ECE01DF91CF911F917D
:1017C0000F91FF90EF900895FC0111821082138217
:1017D0001282158214826115710559F0FB01019086
:1017E0000020E9F7AF0141505109461B570B0C94FB
:1017F000C30B0895EF92FF920F931F93CF93DF9344
:10180000EC017B010C811D816115710511F480E0F3
:1018100016C04115510591F0040F151FB8010E9423
:10182000A70B8823A1F3288139818C819D81B70181
:10183000820F931F0E948A0E1D830C8381E0DF912B
:10184000CF911F910F91FF90EF900895CF93DF9369
:1018500000D0CDB7DEB769831A8241E050E0BE0107
:101860006F5F7F4F0E94FA0B0F900F90DF91CF9127
:101870000895A1E21A2EAA1BBB1BFD010DC0AA1FD1
:10188000BB1FEE1FFF1FA217B307E407F50720F0E9
:10189000A21BB30BE40BF50B661F771F881F991F64
:1018A0001A9469F760957095809590959B01AC01AD
:1018B000BD01CF010895EE0FFF1F0590F491E02DBB
:1018C0000994CF93DF938230910510F482E090E089
:1018D000E091A302F091A40220E030E0A0E0B0E0AB
:1018E000309739F14081518148175907B8F04817AE
:1018F000590771F482819381109729F013969C9374
:101900008E9312972CC09093A4028093A30227C0B9
:101910002115310531F04217530718F0A901DB01F9
:1019200001C0EF019A01BD01DF010280F381E02DCA
:10193000D7CF21153105F9F0281B390B243031059B
:1019400080F48A819B816115710521F0FB019383ED
:10195000828304C09093A4028093A302FE01329676
:1019600044C0FE01E20FF31F81939193225031098D
:10197000398328833AC02091A1023091A202232BFF
:1019800041F420910201309103013093A20220938F
:10199000A10220910001309101012115310541F48E
:1019A0002DB73EB74091040150910501241B350B22
:1019B000E091A102F091A202E217F307A0F42E1B1E
:1019C0003F0B2817390778F0AC014E5F5F4F2417A3
:1019D000350748F04E0F5F1F5093A2024093A102BB
:1019E0008193919302C0E0E0F0E0CF01DF91CF91CD
:1019F0000895CF93DF93009709F487C0FC013297D5
:101A000013821282C091A302D091A402209781F484
:101A100020813181280F391F8091A1029091A2026B
:101A20008217930779F5F093A202E093A1026DC0AB
:101A3000DE0120E030E0AE17BF0750F412964D9162
:101A40005C9113979D014115510509F1DA01F3CF1E
:101A5000B383A28340815181840F951F8A179B070E
:101A600071F48D919C911197840F951F029691832B
:101A7000808312968D919C91139793838283211575
:101A8000310529F4F093A402E093A3023EC0D901EA
:101A90001396FC93EE9312974D915D91A40FB51F91
:101AA000EA17FB0779F480819181840F951F0296D4
:101AB000D90111969C938E938281938113969C9366
:101AC0008E931297E0E0F0E08A819B81009719F0F5
:101AD000FE01EC01F9CFCE01029628813981820FF7
:101AE000931F2091A1023091A2022817390769F4AF
:101AF000309729F41092A4021092A30202C013821C
:101B00001282D093A202C093A102DF91CF910895D7
:101B1000A0E0B0E0EEE8FDE00C94FB0EEC01CB01A0
:101B2000209719F40E94610CB8C0FE01E60FF71F60
:101B30009E0122503109E217F30708F4ACC0D90125
:101B40000D911C91119706171707B8F00530110574
:101B500008F49FC0A801445051094617570708F4DC
:101B600098C002501109061B170B019311936D9336
:101B70007C93CF010E94F90C8CC05B01A01AB10AC2
:101B80004E01800E911EA091A302B091A402612C7F
:101B9000712C60E070E0109709F449C0A815B905F0
:101BA000C9F5ED90FC901197670142E0C40ED11C7D
:101BB000CA14DB0478F147018A189B08640142E0EB
:101BC000C40ED11C1296BC9012971396AC91B5E03E
:101BD000CB16D10440F0B282A38391828082D901D6
:101BE0008D939C9309C00E5F1F4F0E0D1F1DF901B1
:101BF00011830083EB2DFA2F6115710531F0DB01A4
:101C00001396FC93EE93129744C0F093A402E093D2
:101C1000A3023FC06D917C9111976616770608F478
:101C20003B01BD0112960D90BC91A02DB4CF6091E7
:101C3000A1027091A20268157905E9F46816790687
:101C4000D0F440910001509101014115510541F43A
:101C50004DB75EB76091040170910501461B570BAB
:101C6000E417F507C0F4F093A202E093A102F90192
:101C7000918380830EC00E94610C7C01009759F013
:101C8000A801BE010E94780ECE010E94F90CC70186
:101C900004C0CE0102C080E090E0CDB7DEB7EEE038
:101CA0000C94170FFC0188279927E8942191203282
:101CB000E9F3293010F02E30C8F32B3241F02D32E9
:101CC00039F4689404C00E94C50E820F911D2191C1
:101CD00020532A30C0F31EF4909581959F4F0895AC
:101CE0009111089581568A5108F4805285580895BB
:101CF000FB01DC0102C001900D9241505040D8F729
:101D00000895FB01DC018D91019080190110D9F338
:101D1000990B0895FB01DC0101900D920020E1F781
:101D20000895FB01DC014150504048F001900D92B4
:101D30000020C9F701C01D9241505040E0F70895BE
:101D4000FB0151915523A9F0BF01DC014D914517CD
:101D50004111E1F759F4CD010190002049F04D9176
:101D600040154111C9F3FB014111EFCF81E090E033
:101D700001970895BB274A3031F4992322F4BDE23C
:101D8000909581959F4F0C94CE0E7AE0979F902D61
:101D9000879F802D910D11240895BB27FB015527A6
:101DA000AA27880F991FAA1FA41710F0A41B8395B8
:101DB0005051B9F7A05DAA3308F0A95DA19300972F
:101DC00079F7B111B1931192CB010C94E70EDC01BC
:101DD000FC01672F71917723E1F7329704C07C9162
:101DE0006D9370836291AE17BF07C8F308952F9269
:101DF0003F924F925F926F927F928F929F92AF929B
:101E0000BF92CF92DF92EF92FF920F931F93CF93E7
:101E1000DF93CDB7DEB7CA1BDB0B0FB6F894DEBF7E
:101E20000FBECDBF09942A88398848885F846E84A4
:101E30007D848C849B84AA84B984C884DF80EE80EE
:101E4000FD800C811B81AA81B981CE0FD11D0FB6F7
:101E5000F894DEBF0FBECDBFED010895F894FFCF1B
:101E60000000A5028000014F4B0000000000880028
:101E7000000000009F0000000000BC000000000007
:101E8000BC0000000000490100000000E400000068
:101E900000001201000000002F0100000000880077
:101EA00000000000CD0553544F5000425245414BB5
:101EB00000434357004D414E55414C004552524F4F
:101EC000523A200000000000D505DB0500000000AC
:101ED0004C09CA0ACE08E708D9082A090D0A006E7B
:0E1EE000616E00696E66006F7666002E00006F
:107800000C94343C0C94513C0C94513C0C94513CE1
:107810000C94513C0C94513C0C94513C0C94513CB4
:107820000C94513C0C94513C0C94513C0C94513CA4
:107830000C94513C0C94513C0C94513C0C94513C94
:107840000C94513C0C94513C0C94513C0C94513C84
:107850000C94513C0C94513C0C94513C0C94513C74
:107860000C94513C0C94513C11241FBECFEFD8E036
:10787000DEBFCDBF11E0A0E0B1E0ECE9FFE702C060
:1078800005900D92A230B107D9F712E0A2E0B1E065
:1078900001C01D92AD30B107E1F70E942D3D0C945F
:1078A000CC3F0C94003C982F959595959595959582
:1078B000905D8F708A307CF0282F295A8091C0000B
:1078C00085FFFCCF9093C6008091C00085FFFCCF60
:1078D0002093C6000895282F205DF0CF982F809127
:1078E000C00085FFFCCF9093C6000895EF92FF92F1
:1078F0000F931F93EE24FF2487018091C00087FD22
:1079000017C00894E11CF11C011D111D81E4E8164B
:1079100082E4F8068FE0080780E0180770F3E09132
:107920000401F091050109958091C00087FFE9CF1E
:107930008091C6001F910F91FF90EF9008950E94D3
:10794000763C982F8091C00085FFFCCF9093C600B5
:1079500091362CF490330CF09053892F089597555D
:10796000892F08951F930E949F3C182F0E949F3CCF
:107970001295107F810F1F9108951F93182F882350
:1079800021F00E94763C1150E1F71F9108951F935A
:10799000182F0E94763C803249F0809103018F5F5E
:1079A000809303018530C1F01F9108958091C0003C
:1079B00085FFFCCF84E18093C6008091C00085FFE5
:1079C000FCCF1093C6008091C00085FFFCCF80E102
:1079D0008093C6001F910895E0910401F091050184
:1079E00009951F9108950E94763C803241F0809164
:1079F00003018F5F80930301853081F008958091AA
:107A0000C00085FFFCCF84E18093C6008091C00058
:107A100085FFFCCF80E18093C6000895E0910401CA
:107A2000F09105010995089540E951E08823A1F0FE
:107A30002D9A28EE33E0FA013197F1F721503040CA
:107A4000D1F72D9828EE33E0FA013197F1F7215064
:107A50003040D1F7815061F708953F924F925F9285
:107A60006F927F928F929F92AF92BF92CF92DF924E
:107A7000EF92FF920F931F93CF93DF93000080E16B
:107A80008093C4001092C50088E18093C10086E015
:107A90008093C2005098589A259A81E00E94143D24
:107AA00024E1F22E9EE1E92E85E9D82E0FE0C02ECA
:107AB00010E1B12EAA24A394B1E49B2EA6E58A2E50
:107AC000F2E57F2EE0E26E2E79E4572E63E5462E36
:107AD00050E5352E0E94763C8033B1F18133B9F107
:107AE000803409F46FC0813409F476C0823409F41B
:107AF00085C0853409F488C0803531F1823521F1A3
:107B0000813511F1853509F485C0863509F48DC0BC
:107B1000843609F496C0843709F403C1853709F423
:107B200072C1863709F466C0809103018F5F80932C
:107B30000301853079F6E0910401F0910501099582
:107B40000E94763C803351F60E94F33CC3CF0E94E2
:107B5000763C803249F78091C00085FFFCCFF092DF
:107B6000C6008091C00085FFFCCF9092C600809136
:107B7000C00085FFFCCF8092C6008091C00085FFC9
:107B8000FCCF7092C6008091C00085FFFCCF609250
:107B9000C6008091C00085FFFCCF5092C600809146
:107BA000C00085FFFCCF4092C6008091C00085FFD9
:107BB000FCCF3092C6008091C00085FFFCCFB09210
:107BC000C60088CF0E94763C863808F4BDCF0E945C
:107BD000763C0E94F33C7ECF0E94763C803809F4CC
:107BE0009CC0813809F40BC1823809F43CC1883942
:107BF00009F48FC080E00E94C73C6CCF84E10E94F2
:107C0000BD3C0E94F33C66CF85E00E94BD3C0E94D3
:107C1000F33C60CF0E94763C809306010E94763C44
:107C2000809307010E94F33C55CF0E94763C80333D
:107C300009F41DC183E00E94BD3C80E00E94C73C66
:107C400049CF0E94763C809309020E94763C809343
:107C5000080280910C028E7F80930C020E94763C79
:107C6000853409F415C18091080290910902892B8D
:107C700089F000E010E00E94763CF801E85FFE4FDA
:107C800080830F5F1F4F80910802909109020817AF
:107C9000190788F30E94763C803209F045CF809125
:107CA0000C0280FF01C16091060170910701660F0F
:107CB000771F7093070160930601A0910802B091AD
:107CC00009021097C9F0E8E0F1E09B01AD014E0F09
:107CD0005F1FF999FECF32BD21BD819180BDFA9A17
:107CE000F99A2F5F3F4FE417F50799F76A0F7B1F4B
:107CF00070930701609306018091C00085FFFCCF5F
:107D0000F092C6008091C00085FFFCCFB092C60003
:107D1000E1CE83E00E94C73CDDCE82E00E94C73CFA
:107D2000D9CE0E94763C809309020E94763C8093D3
:107D300008028091060190910701880F991F909386
:107D40000701809306010E94763C853409F4A6C0A1
:107D500080910C028E7F80930C020E94763C8032D0
:107D600009F0B8CE8091C00085FFFCCFF092C6002C
:107D7000609108027091090261157105B9F140E046
:107D800050E080910C02A82FA170B82FB27011C0E2
:107D9000BB2309F45CC0E0910601F0910701319624
:107DA000F0930701E09306014F5F5F4F46175707B7
:107DB000E8F4AA2369F3F999FECF209106013091E6
:107DC000070132BD21BDF89A90B58091C00085FFB2
:107DD000FCCF9093C6002F5F3F4F30930701209355
:107DE00006014F5F5F4F4617570718F38091C00099
:107DF00085FDE5CE8091C00085FFF8CFE0CE81E023
:107E00000E94C73C67CE0E94763C803209F08CCE3F
:107E10008091C00085FFFCCFF092C6008091C00029
:107E200085FFFCCFE092C6008091C00085FFFCCFAB
:107E3000D092C6008091C00085FFFCCFC092C600E2
:107E40008091C00085FFFCCFB092C60043CEE09188
:107E50000601F091070194918091C00085FFFCCF4D
:107E60009093C6009CCF80E10E94C73C33CE0E9415
:107E7000763C0E94763C182F0E94763C112309F430
:107E800083C0113009F484C08FE00E94C73C22CE29
:107E900080910C02816080930C02E5CE80910C02EF
:107EA000816080930C0259CF809107018823880F4D
:107EB000880B8A2180930B02809106019091070123
:107EC000880F991F90930701809306018091080203
:107ED00080FF09C080910802909109020196909359
:107EE000090280930802F894F999FECF1127E091D6
:107EF0000601F0910701C8E0D1E08091080290915D
:107F00000902103091F40091570001700130D9F34B
:107F100003E000935700E89500915700017001308D
:107F2000D9F301E100935700E89509901990009169
:107F3000570001700130D9F301E000935700E89534
:107F40001395103498F011270091570001700130FB
:107F5000D9F305E000935700E895009157000170B0
:107F60000130D9F301E100935700E895329602976A
:107F700009F0C7CF103011F00296E5CF112480919F
:107F8000C00085FFB9CEBCCE8EE10E94C73CA2CD19
:0C7F900085E90E94C73C9ECDF894FFCF0D
:027F9C00800063
:040000030000780081
:00000001FF